{
  "_format": "hh-sol-artifact-1",
  "contractName": "ValentineNFT",
  "sourceName": "contracts/valentine.sol",
  "abi": [
    {
      "inputs": [
        {
          "internalType": "string",
          "name": "_name",
          "type": "string"
        },
        {
          "internalType": "string",
          "name": "_symbol",
          "type": "string"
        },
        {
          "internalType": "string[]",
          "name": "_traitIds",
          "type": "string[]"
        },
        {
          "internalType": "string[]",
          "name": "_traitLabels",
          "type": "string[]"
        },
        {
          "internalType": "address",
          "name": "_SVGAssembler",
          "type": "address"
        },
        {
          "components": [
            {
              "internalType": "uint256",
              "name": "card",
              "type": "uint256"
            },
            {
              "internalType": "uint256",
              "name": "message",
              "type": "uint256"
            }
          ],
          "internalType": "struct ValentineNFT.Price",
          "name": "_mintPrice",
          "type": "tuple"
        },
        {
          "components": [
            {
              "internalType": "uint256",
              "name": "month",
              "type": "uint256"
            },
            {
              "internalType": "uint256",
              "name": "day",
              "type": "uint256"
            }
          ],
          "internalType": "struct ValentineNFT.Date",
          "name": "_valentineDate",
          "type": "tuple"
        }
      ],
      "stateMutability": "nonpayable",
      "type": "constructor"
    },
    {
      "inputs": [],
      "name": "BatchTooLarge",
      "type": "error"
    },
    {
      "inputs": [
        {
          "internalType": "uint256",
          "name": "numerator",
          "type": "uint256"
        },
        {
          "internalType": "uint256",
          "name": "denominator",
          "type": "uint256"
        }
      ],
      "name": "ERC2981InvalidDefaultRoyalty",
      "type": "error"
    },
    {
      "inputs": [
        {
          "internalType": "address",
          "name": "receiver",
          "type": "address"
        }
      ],
      "name": "ERC2981InvalidDefaultRoyaltyReceiver",
      "type": "error"
    },
    {
      "inputs": [
        {
          "internalType": "uint256",
          "name": "tokenId",
          "type": "uint256"
        },
        {
          "internalType": "uint256",
          "name": "numerator",
          "type": "uint256"
        },
        {
          "internalType": "uint256",
          "name": "denominator",
          "type": "uint256"
        }
      ],
      "name": "ERC2981InvalidTokenRoyalty",
      "type": "error"
    },
    {
      "inputs": [
        {
          "internalType": "uint256",
          "name": "tokenId",
          "type": "uint256"
        },
        {
          "internalType": "address",
          "name": "receiver",
          "type": "address"
        }
      ],
      "name": "ERC2981InvalidTokenRoyaltyReceiver",
      "type": "error"
    },
    {
      "inputs": [],
      "name": "ERC721EnumerableForbiddenBatchMint",
      "type": "error"
    },
    {
      "inputs": [
        {
          "internalType": "address",
          "name": "sender",
          "type": "address"
        },
        {
          "internalType": "uint256",
          "name": "tokenId",
          "type": "uint256"
        },
        {
          "internalType": "address",
          "name": "owner",
          "type": "address"
        }
      ],
      "name": "ERC721IncorrectOwner",
      "type": "error"
    },
    {
      "inputs": [
        {
          "internalType": "address",
          "name": "operator",
          "type": "address"
        },
        {
          "internalType": "uint256",
          "name": "tokenId",
          "type": "uint256"
        }
      ],
      "name": "ERC721InsufficientApproval",
      "type": "error"
    },
    {
      "inputs": [
        {
          "internalType": "address",
          "name": "approver",
          "type": "address"
        }
      ],
      "name": "ERC721InvalidApprover",
      "type": "error"
    },
    {
      "inputs": [
        {
          "internalType": "address",
          "name": "operator",
          "type": "address"
        }
      ],
      "name": "ERC721InvalidOperator",
      "type": "error"
    },
    {
      "inputs": [
        {
          "internalType": "address",
          "name": "owner",
          "type": "address"
        }
      ],
      "name": "ERC721InvalidOwner",
      "type": "error"
    },
    {
      "inputs": [
        {
          "internalType": "address",
          "name": "receiver",
          "type": "address"
        }
      ],
      "name": "ERC721InvalidReceiver",
      "type": "error"
    },
    {
      "inputs": [
        {
          "internalType": "address",
          "name": "sender",
          "type": "address"
        }
      ],
      "name": "ERC721InvalidSender",
      "type": "error"
    },
    {
      "inputs": [
        {
          "internalType": "uint256",
          "name": "tokenId",
          "type": "uint256"
        }
      ],
      "name": "ERC721NonexistentToken",
      "type": "error"
    },
    {
      "inputs": [
        {
          "internalType": "address",
          "name": "owner",
          "type": "address"
        },
        {
          "internalType": "uint256",
          "name": "index",
          "type": "uint256"
        }
      ],
      "name": "ERC721OutOfBoundsIndex",
      "type": "error"
    },
    {
      "inputs": [],
      "name": "InsufficientPayment",
      "type": "error"
    },
    {
      "inputs": [
        {
          "internalType": "string",
          "name": "traitId",
          "type": "string"
        }
      ],
      "name": "InvalidTraitId",
      "type": "error"
    },
    {
      "inputs": [],
      "name": "MessageTooLong",
      "type": "error"
    },
    {
      "inputs": [],
      "name": "MintingDisabled",
      "type": "error"
    },
    {
      "inputs": [],
      "name": "NotAuthorized",
      "type": "error"
    },
    {
      "inputs": [],
      "name": "NotMintDate",
      "type": "error"
    },
    {
      "inputs": [],
      "name": "NotMintYear",
      "type": "error"
    },
    {
      "inputs": [],
      "name": "NotSender",
      "type": "error"
    },
    {
      "inputs": [
        {
          "internalType": "address",
          "name": "owner",
          "type": "address"
        }
      ],
      "name": "OwnableInvalidOwner",
      "type": "error"
    },
    {
      "inputs": [
        {
          "internalType": "address",
          "name": "account",
          "type": "address"
        }
      ],
      "name": "OwnableUnauthorizedAccount",
      "type": "error"
    },
    {
      "inputs": [],
      "name": "StatsAlreadyGenerated",
      "type": "error"
    },
    {
      "inputs": [
        {
          "internalType": "uint256",
          "name": "value",
          "type": "uint256"
        }
      ],
      "name": "Unoriginal",
      "type": "error"
    },
    {
      "anonymous": false,
      "inputs": [
        {
          "indexed": true,
          "internalType": "address",
          "name": "owner",
          "type": "address"
        },
        {
          "indexed": true,
          "internalType": "address",
          "name": "approved",
          "type": "address"
        },
        {
          "indexed": true,
          "internalType": "uint256",
          "name": "tokenId",
          "type": "uint256"
        }
      ],
      "name": "Approval",
      "type": "event"
    },
    {
      "anonymous": false,
      "inputs": [
        {
          "indexed": true,
          "internalType": "address",
          "name": "owner",
          "type": "address"
        },
        {
          "indexed": true,
          "internalType": "address",
          "name": "operator",
          "type": "address"
        },
        {
          "indexed": false,
          "internalType": "bool",
          "name": "approved",
          "type": "bool"
        }
      ],
      "name": "ApprovalForAll",
      "type": "event"
    },
    {
      "anonymous": false,
      "inputs": [
        {
          "indexed": true,
          "internalType": "address",
          "name": "minter",
          "type": "address"
        },
        {
          "indexed": false,
          "internalType": "uint256",
          "name": "quantity",
          "type": "uint256"
        }
      ],
      "name": "BatchMinted",
      "type": "event"
    },
    {
      "anonymous": false,
      "inputs": [
        {
          "indexed": true,
          "internalType": "uint256",
          "name": "tokenId",
          "type": "uint256"
        },
        {
          "indexed": false,
          "internalType": "string",
          "name": "message",
          "type": "string"
        }
      ],
      "name": "MessageAdded",
      "type": "event"
    },
    {
      "anonymous": false,
      "inputs": [
        {
          "indexed": true,
          "internalType": "address",
          "name": "previousOwner",
          "type": "address"
        },
        {
          "indexed": true,
          "internalType": "address",
          "name": "newOwner",
          "type": "address"
        }
      ],
      "name": "OwnershipTransferred",
      "type": "event"
    },
    {
      "anonymous": false,
      "inputs": [
        {
          "indexed": true,
          "internalType": "address",
          "name": "from",
          "type": "address"
        },
        {
          "indexed": true,
          "internalType": "address",
          "name": "to",
          "type": "address"
        },
        {
          "indexed": true,
          "internalType": "uint256",
          "name": "tokenId",
          "type": "uint256"
        }
      ],
      "name": "Transfer",
      "type": "event"
    },
    {
      "anonymous": false,
      "inputs": [
        {
          "indexed": true,
          "internalType": "address",
          "name": "to",
          "type": "address"
        },
        {
          "indexed": true,
          "internalType": "address",
          "name": "from",
          "type": "address"
        },
        {
          "indexed": false,
          "internalType": "uint256",
          "name": "tokenId",
          "type": "uint256"
        }
      ],
      "name": "ValentineMinted",
      "type": "event"
    },
    {
      "inputs": [],
      "name": "MAX_BATCH_SIZE",
      "outputs": [
        {
          "internalType": "uint256",
          "name": "",
          "type": "uint256"
        }
      ],
      "stateMutability": "view",
      "type": "function"
    },
    {
      "inputs": [],
      "name": "MAX_MESSAGE_LENGTH",
      "outputs": [
        {
          "internalType": "uint256",
          "name": "",
          "type": "uint256"
        }
      ],
      "stateMutability": "view",
      "type": "function"
    },
    {
      "inputs": [
        {
          "internalType": "address",
          "name": "",
          "type": "address"
        }
      ],
      "name": "_isScheduler",
      "outputs": [
        {
          "internalType": "bool",
          "name": "",
          "type": "bool"
        }
      ],
      "stateMutability": "view",
      "type": "function"
    },
    {
      "inputs": [
        {
          "internalType": "uint256",
          "name": "tokenId",
          "type": "uint256"
        },
        {
          "internalType": "string",
          "name": "message",
          "type": "string"
        }
      ],
      "name": "addMessage",
      "outputs": [],
      "stateMutability": "payable",
      "type": "function"
    },
    {
      "inputs": [
        {
          "internalType": "address",
          "name": "to",
          "type": "address"
        },
        {
          "internalType": "uint256",
          "name": "tokenId",
          "type": "uint256"
        }
      ],
      "name": "approve",
      "outputs": [],
      "stateMutability": "nonpayable",
      "type": "function"
    },
    {
      "inputs": [
        {
          "internalType": "address",
          "name": "owner",
          "type": "address"
        }
      ],
      "name": "balanceOf",
      "outputs": [
        {
          "internalType": "uint256",
          "name": "",
          "type": "uint256"
        }
      ],
      "stateMutability": "view",
      "type": "function"
    },
    {
      "inputs": [
        {
          "components": [
            {
              "internalType": "address",
              "name": "to",
              "type": "address"
            },
            {
              "internalType": "address",
              "name": "from",
              "type": "address"
            },
            {
              "internalType": "string",
              "name": "message",
              "type": "string"
            }
          ],
          "internalType": "struct ValentineNFT.Valentine[]",
          "name": "_valentines",
          "type": "tuple[]"
        }
      ],
      "name": "bulkMint",
      "outputs": [],
      "stateMutability": "payable",
      "type": "function"
    },
    {
      "inputs": [
        {
          "internalType": "uint256",
          "name": "tokenId",
          "type": "uint256"
        }
      ],
      "name": "getApproved",
      "outputs": [
        {
          "internalType": "address",
          "name": "",
          "type": "address"
        }
      ],
      "stateMutability": "view",
      "type": "function"
    },
    {
      "inputs": [
        {
          "internalType": "uint256",
          "name": "tokenId",
          "type": "uint256"
        }
      ],
      "name": "getTokenSVG",
      "outputs": [
        {
          "internalType": "string",
          "name": "svg",
          "type": "string"
        }
      ],
      "stateMutability": "view",
      "type": "function"
    },
    {
      "inputs": [
        {
          "internalType": "address",
          "name": "owner",
          "type": "address"
        },
        {
          "internalType": "address",
          "name": "operator",
          "type": "address"
        }
      ],
      "name": "isApprovedForAll",
      "outputs": [
        {
          "internalType": "bool",
          "name": "",
          "type": "bool"
        }
      ],
      "stateMutability": "view",
      "type": "function"
    },
    {
      "inputs": [
        {
          "internalType": "address",
          "name": "_to",
          "type": "address"
        }
      ],
      "name": "mint",
      "outputs": [],
      "stateMutability": "payable",
      "type": "function"
    },
    {
      "inputs": [],
      "name": "mintPrice",
      "outputs": [
        {
          "internalType": "uint256",
          "name": "card",
          "type": "uint256"
        },
        {
          "internalType": "uint256",
          "name": "message",
          "type": "uint256"
        }
      ],
      "stateMutability": "view",
      "type": "function"
    },
    {
      "inputs": [],
      "name": "name",
      "outputs": [
        {
          "internalType": "string",
          "name": "",
          "type": "string"
        }
      ],
      "stateMutability": "view",
      "type": "function"
    },
    {
      "inputs": [],
      "name": "owner",
      "outputs": [
        {
          "internalType": "address",
          "name": "",
          "type": "address"
        }
      ],
      "stateMutability": "view",
      "type": "function"
    },
    {
      "inputs": [
        {
          "internalType": "uint256",
          "name": "tokenId",
          "type": "uint256"
        }
      ],
      "name": "ownerOf",
      "outputs": [
        {
          "internalType": "address",
          "name": "",
          "type": "address"
        }
      ],
      "stateMutability": "view",
      "type": "function"
    },
    {
      "inputs": [],
      "name": "renounceOwnership",
      "outputs": [],
      "stateMutability": "nonpayable",
      "type": "function"
    },
    {
      "inputs": [
        {
          "internalType": "uint256",
          "name": "tokenId",
          "type": "uint256"
        },
        {
          "internalType": "uint256",
          "name": "salePrice",
          "type": "uint256"
        }
      ],
      "name": "royaltyInfo",
      "outputs": [
        {
          "internalType": "address",
          "name": "receiver",
          "type": "address"
        },
        {
          "internalType": "uint256",
          "name": "amount",
          "type": "uint256"
        }
      ],
      "stateMutability": "view",
      "type": "function"
    },
    {
      "inputs": [
        {
          "internalType": "address",
          "name": "from",
          "type": "address"
        },
        {
          "internalType": "address",
          "name": "to",
          "type": "address"
        },
        {
          "internalType": "uint256",
          "name": "tokenId",
          "type": "uint256"
        }
      ],
      "name": "safeTransferFrom",
      "outputs": [],
      "stateMutability": "nonpayable",
      "type": "function"
    },
    {
      "inputs": [
        {
          "internalType": "address",
          "name": "from",
          "type": "address"
        },
        {
          "internalType": "address",
          "name": "to",
          "type": "address"
        },
        {
          "internalType": "uint256",
          "name": "tokenId",
          "type": "uint256"
        },
        {
          "internalType": "bytes",
          "name": "data",
          "type": "bytes"
        }
      ],
      "name": "safeTransferFrom",
      "outputs": [],
      "stateMutability": "nonpayable",
      "type": "function"
    },
    {
      "inputs": [
        {
          "components": [
            {
              "internalType": "address",
              "name": "to",
              "type": "address"
            },
            {
              "internalType": "address",
              "name": "from",
              "type": "address"
            },
            {
              "internalType": "string",
              "name": "message",
              "type": "string"
            }
          ],
          "internalType": "struct ValentineNFT.Valentine[]",
          "name": "_valentines",
          "type": "tuple[]"
        }
      ],
      "name": "schedulerMint",
      "outputs": [],
      "stateMutability": "payable",
      "type": "function"
    },
    {
      "inputs": [
        {
          "internalType": "address",
          "name": "operator",
          "type": "address"
        },
        {
          "internalType": "bool",
          "name": "approved",
          "type": "bool"
        }
      ],
      "name": "setApprovalForAll",
      "outputs": [],
      "stateMutability": "nonpayable",
      "type": "function"
    },
    {
      "inputs": [
        {
          "internalType": "address",
          "name": "receiver",
          "type": "address"
        },
        {
          "internalType": "uint96",
          "name": "feeNumerator",
          "type": "uint96"
        }
      ],
      "name": "setDefaultRoyalty",
      "outputs": [],
      "stateMutability": "nonpayable",
      "type": "function"
    },
    {
      "inputs": [
        {
          "components": [
            {
              "internalType": "uint256",
              "name": "card",
              "type": "uint256"
            },
            {
              "internalType": "uint256",
              "name": "message",
              "type": "uint256"
            }
          ],
          "internalType": "struct ValentineNFT.Price",
          "name": "_price",
          "type": "tuple"
        }
      ],
      "name": "setPrice",
      "outputs": [],
      "stateMutability": "nonpayable",
      "type": "function"
    },
    {
      "inputs": [
        {
          "internalType": "string",
          "name": "_traitId",
          "type": "string"
        },
        {
          "internalType": "string",
          "name": "_traitValue",
          "type": "string"
        },
        {
          "internalType": "string",
          "name": "_svg",
          "type": "string"
        }
      ],
      "name": "setSVGLayer",
      "outputs": [],
      "stateMutability": "payable",
      "type": "function"
    },
    {
      "inputs": [
        {
          "internalType": "address",
          "name": "_schedulerContract",
          "type": "address"
        },
        {
          "internalType": "bool",
          "name": "_status",
          "type": "bool"
        }
      ],
      "name": "setSchedulerAddress",
      "outputs": [],
      "stateMutability": "nonpayable",
      "type": "function"
    },
    {
      "inputs": [
        {
          "internalType": "bytes4",
          "name": "interfaceId",
          "type": "bytes4"
        }
      ],
      "name": "supportsInterface",
      "outputs": [
        {
          "internalType": "bool",
          "name": "",
          "type": "bool"
        }
      ],
      "stateMutability": "view",
      "type": "function"
    },
    {
      "inputs": [],
      "name": "symbol",
      "outputs": [
        {
          "internalType": "string",
          "name": "",
          "type": "string"
        }
      ],
      "stateMutability": "view",
      "type": "function"
    },
    {
      "inputs": [
        {
          "internalType": "uint256",
          "name": "index",
          "type": "uint256"
        }
      ],
      "name": "tokenByIndex",
      "outputs": [
        {
          "internalType": "uint256",
          "name": "",
          "type": "uint256"
        }
      ],
      "stateMutability": "view",
      "type": "function"
    },
    {
      "inputs": [
        {
          "internalType": "address",
          "name": "owner",
          "type": "address"
        },
        {
          "internalType": "uint256",
          "name": "index",
          "type": "uint256"
        }
      ],
      "name": "tokenOfOwnerByIndex",
      "outputs": [
        {
          "internalType": "uint256",
          "name": "",
          "type": "uint256"
        }
      ],
      "stateMutability": "view",
      "type": "function"
    },
    {
      "inputs": [
        {
          "internalType": "uint256",
          "name": "_tokenId",
          "type": "uint256"
        }
      ],
      "name": "tokenURI",
      "outputs": [
        {
          "internalType": "string",
          "name": "",
          "type": "string"
        }
      ],
      "stateMutability": "view",
      "type": "function"
    },
    {
      "inputs": [],
      "name": "totalSupply",
      "outputs": [
        {
          "internalType": "uint256",
          "name": "",
          "type": "uint256"
        }
      ],
      "stateMutability": "view",
      "type": "function"
    },
    {
      "inputs": [
        {
          "internalType": "bytes32",
          "name": "traitId",
          "type": "bytes32"
        },
        {
          "internalType": "uint256",
          "name": "",
          "type": "uint256"
        }
      ],
      "name": "traitData",
      "outputs": [
        {
          "internalType": "string",
          "name": "traitName",
          "type": "string"
        },
        {
          "internalType": "bytes32",
          "name": "svgAddress",
          "type": "bytes32"
        }
      ],
      "stateMutability": "view",
      "type": "function"
    },
    {
      "inputs": [
        {
          "internalType": "address",
          "name": "from",
          "type": "address"
        },
        {
          "internalType": "address",
          "name": "to",
          "type": "address"
        },
        {
          "internalType": "uint256",
          "name": "tokenId",
          "type": "uint256"
        }
      ],
      "name": "transferFrom",
      "outputs": [],
      "stateMutability": "nonpayable",
      "type": "function"
    },
    {
      "inputs": [
        {
          "internalType": "address",
          "name": "newOwner",
          "type": "address"
        }
      ],
      "name": "transferOwnership",
      "outputs": [],
      "stateMutability": "nonpayable",
      "type": "function"
    },
    {
      "inputs": [],
      "name": "valentineDate",
      "outputs": [
        {
          "internalType": "uint256",
          "name": "month",
          "type": "uint256"
        },
        {
          "internalType": "uint256",
          "name": "day",
          "type": "uint256"
        }
      ],
      "stateMutability": "view",
      "type": "function"
    },
    {
      "inputs": [
        {
          "internalType": "address",
          "name": "to",
          "type": "address"
        }
      ],
      "name": "withdraw",
      "outputs": [],
      "stateMutability": "nonpayable",
      "type": "function"
    }
  ],
  "bytecode": "0x60806040523480156200001157600080fd5b506040516200432a3803806200432a8339810160408190526200003491620006aa565b868633878787620000468383620001c9565b600080546001600160a01b0319166001600160a01b03928316179055831691506200008e905057604051631e4fbdf760e01b8152600060048201526024015b60405180910390fd5b62000099816200032b565b506006620000a883826200082c565b506007620000b782826200082c565b5050506040518060a0016040528061021c81526020016102f4815260200160011515815260200160011515815260200160028054806020026020016040519081016040528092919081815260200182805480156200013557602002820191906000526020600020905b81548152602001906001019080831162000120575b50505091909252505080516013908155602080830151601455604083015160158054606086015115156101000261ff00199315159390931661ffff1990911617919091179055608083015180516200019292601692019062000424565b50508151601755506020808201516018558251601955820151601a55620001bc336101f46200037d565b5050505050505062000954565b8051825114620002325760405162461bcd60e51b815260206004820152602d60248201527f54726169742049447320616e64206e616d6573206d757374206861766520746860448201526c0ca40e6c2daca40d8cadccee8d609b1b606482015260840162000085565b620002406002600062000474565b60005b825181101562000326576000838281518110620002645762000264620008f8565b60200260200101516040516020016200027e91906200090e565b60408051601f198184030181529190528051602090910120600280546001810182556000919091527f405787fa12a823e0f2b7631cc41b3ba8828b3321ca811111fa75cd3aa3bb5ace018190558351909150839083908110620002e557620002e5620008f8565b60200260200101516003600083815260200190815260200160002090816200030e91906200082c565b505080806200031d906200092c565b91505062000243565b505050565b600580546001600160a01b038381166001600160a01b0319831681179093556040519116919082907f8be0079c531659141344cd1fd0a4f28419497f9722a3daafe3b4186f6b6457e090600090a35050565b6127106001600160601b038216811015620003be57604051636f483d0960e01b81526001600160601b03831660048201526024810182905260440162000085565b6001600160a01b038316620003ea57604051635b6cc80560e11b81526000600482015260240162000085565b50604080518082019091526001600160a01b039092168083526001600160601b039091166020909201829052600160a01b90910217601055565b82805482825590600052602060002090810192821562000462579160200282015b828111156200046257825182559160200191906001019062000445565b506200047092915062000497565b5090565b508054600082559060005260206000209081019062000494919062000497565b50565b5b8082111562000470576000815560010162000498565b634e487b7160e01b600052604160045260246000fd5b604051601f8201601f191681016001600160401b0381118282101715620004ef57620004ef620004ae565b604052919050565b60005b8381101562000514578181015183820152602001620004fa565b50506000910152565b600082601f8301126200052f57600080fd5b81516001600160401b038111156200054b576200054b620004ae565b62000560601f8201601f1916602001620004c4565b8181528460208386010111156200057657600080fd5b62000589826020830160208701620004f7565b949350505050565b600082601f830112620005a357600080fd5b815160206001600160401b0380831115620005c257620005c2620004ae565b8260051b620005d3838201620004c4565b9384528581018301938381019088861115620005ee57600080fd5b84880192505b858310156200062f578251848111156200060e5760008081fd5b6200061e8a87838c01016200051d565b8352509184019190840190620005f4565b98975050505050505050565b80516001600160a01b03811681146200065357600080fd5b919050565b6000604082840312156200066b57600080fd5b604080519081016001600160401b0381118282101715620006905762000690620004ae565b604052825181526020928301519281019290925250919050565b6000806000806000806000610120888a031215620006c757600080fd5b87516001600160401b0380821115620006df57600080fd5b620006ed8b838c016200051d565b985060208a01519150808211156200070457600080fd5b620007128b838c016200051d565b975060408a01519150808211156200072957600080fd5b620007378b838c0162000591565b965060608a01519150808211156200074e57600080fd5b506200075d8a828b0162000591565b9450506200076e608089016200063b565b92506200077f8960a08a0162000658565b9150620007908960e08a0162000658565b905092959891949750929550565b600181811c90821680620007b357607f821691505b602082108103620007d457634e487b7160e01b600052602260045260246000fd5b50919050565b601f8211156200032657600081815260208120601f850160051c81016020861015620008035750805b601f850160051c820191505b8181101562000824578281556001016200080f565b505050505050565b81516001600160401b03811115620008485762000848620004ae565b62000860816200085984546200079e565b84620007da565b602080601f8311600181146200089857600084156200087f5750858301515b600019600386901b1c1916600185901b17855562000824565b600085815260208120601f198616915b82811015620008c957888601518255948401946001909101908401620008a8565b5085821015620008e85787850151600019600388901b60f8161c191681555b5050505050600190811b01905550565b634e487b7160e01b600052603260045260246000fd5b6000825162000922818460208701620004f7565b9190910192915050565b6000600182016200094d57634e487b7160e01b600052601160045260246000fd5b5060010190565b6139c680620009646000396000f3fe60806040526004361061020f5760003560e01c8063715018a611610118578063c7ab2dbc116100a0578063ed99c2ee1161006f578063ed99c2ee1461062a578063f2fde38b14610645578063f3658eb114610665578063fa2ff09414610678578063fd6f66131461068b57600080fd5b8063c7ab2dbc146105b5578063c87b56dd146105d5578063cfdbf254146105f5578063e985e9c51461060a57600080fd5b80639cc53bc8116100e75780639cc53bc814610512578063a22cb46514610542578063a8d3243414610562578063afa4987514610582578063b88d4fde1461059557600080fd5b8063715018a61461049c5780637d415264146104b15780638da5cb5b146104df57806395d89b41146104fd57600080fd5b80632f745c591161019b5780636352211e1161016a5780636352211e146103f9578063673889a0146104195780636817c76c146104395780636a6278421461046957806370a082311461047c57600080fd5b80632f745c591461037957806342842e0e146103995780634f6ccce7146103b957806351cff8d9146103d957600080fd5b8063095ea7b3116101e2578063095ea7b3146102c557806318160ddd146102e557806323b872dd146103045780632a027211146103245780632a55205a1461033a57600080fd5b806301ffc9a71461021457806304634d8d1461024957806306fdde031461026b578063081812fc1461028d575b600080fd5b34801561022057600080fd5b5061023461022f366004612be8565b61069e565b60405190151581526020015b60405180910390f35b34801561025557600080fd5b50610269610264366004612c21565b6106af565b005b34801561027757600080fd5b506102806106c5565b6040516102409190612cb4565b34801561029957600080fd5b506102ad6102a8366004612cc7565b610757565b6040516001600160a01b039091168152602001610240565b3480156102d157600080fd5b506102696102e0366004612ce0565b610780565b3480156102f157600080fd5b50600e545b604051908152602001610240565b34801561031057600080fd5b5061026961031f366004612d0a565b61078b565b34801561033057600080fd5b506102f661011881565b34801561034657600080fd5b5061035a610355366004612d46565b61081b565b604080516001600160a01b039093168352602083019190915201610240565b34801561038557600080fd5b506102f6610394366004612ce0565b6108a0565b3480156103a557600080fd5b506102696103b4366004612d0a565b610905565b3480156103c557600080fd5b506102f66103d4366004612cc7565b610925565b3480156103e557600080fd5b506102696103f4366004612d68565b61097e565b34801561040557600080fd5b506102ad610414366004612cc7565b610a20565b34801561042557600080fd5b50610269610434366004612d83565b610a2b565b34801561044557600080fd5b50601954601a54610454919082565b60408051928352602083019190915201610240565b610269610477366004612d68565b610a5e565b34801561048857600080fd5b506102f6610497366004612d68565b610b45565b3480156104a857600080fd5b50610269610b8d565b3480156104bd57600080fd5b506104d16104cc366004612d46565b610ba1565b604051610240929190612db4565b3480156104eb57600080fd5b506005546001600160a01b03166102ad565b34801561050957600080fd5b50610280610c6a565b34801561051e57600080fd5b5061023461052d366004612d68565b601c6020526000908152604090205460ff1681565b34801561054e57600080fd5b5061026961055d366004612d83565b610c79565b34801561056e57600080fd5b5061026961057d366004612e44565b610c84565b610269610590366004612f17565b610c9a565b3480156105a157600080fd5b506102696105b0366004612f5d565b610da8565b3480156105c157600080fd5b506102806105d0366004612cc7565b610dc0565b3480156105e157600080fd5b506102806105f0366004612cc7565b610e64565b34801561060157600080fd5b506102f6606481565b34801561061657600080fd5b50610234610625366004612fd8565b611277565b34801561063657600080fd5b50601754601854610454919082565b34801561065157600080fd5b50610269610660366004612d68565b6112a5565b61026961067336600461300b565b6112e3565b61026961068636600461300b565b61131c565b610269610699366004613123565b6114e7565b60006106a98261159c565b92915050565b6106b76115c1565b6106c182826115ee565b5050565b6060600680546106d4906131aa565b80601f0160208091040260200160405190810160405280929190818152602001828054610700906131aa565b801561074d5780601f106107225761010080835404028352916020019161074d565b820191906000526020600020905b81548152906001019060200180831161073057829003601f168201915b5050505050905090565b600061076282611691565b506000828152600a60205260409020546001600160a01b03166106a9565b6106c18282336116ca565b6001600160a01b0382166107ba57604051633250574960e11b8152600060048201526024015b60405180910390fd5b60006107c78383336116d7565b9050836001600160a01b0316816001600160a01b031614610815576040516364283d7b60e01b81526001600160a01b03808616600483015260248201849052821660448201526064016107b1565b50505050565b600082815260116020526040812080548291906001600160a01b03811690600160a01b90046001600160601b03168161086f5750506010546001600160a01b03811690600160a01b90046001600160601b03165b60006127106108876001600160601b038416896131fa565b6108919190613227565b92989297509195505050505050565b60006108ab83610b45565b82106108dc5760405163295f44f760e21b81526001600160a01b0384166004820152602481018390526044016107b1565b506001600160a01b03919091166000908152600c60209081526040808320938352929052205490565b61092083838360405180602001604052806000815250610da8565b505050565b6000610930600e5490565b82106109595760405163295f44f760e21b815260006004820152602481018390526044016107b1565b600e828154811061096c5761096c61323b565b90600052602060002001549050919050565b6109866115c1565b6000816001600160a01b03164760405160006040518083038185875af1925050503d80600081146109d3576040519150601f19603f3d011682016040523d82523d6000602084013e6109d8565b606091505b50509050806106c15760405162461bcd60e51b81526020600482015260146024820152732330b4b632b2103a379039b2b7321022ba3432b960611b60448201526064016107b1565b60006106a982611691565b610a336115c1565b6001600160a01b03919091166000908152601c60205260409020805460ff1916911515919091179055565b6000806000610a6c426117ae565b92509250925060176000015482141580610a8857506018548114155b15610aa6576040516301f8564360e31b815260040160405180910390fd5b6000610aba6005546001600160a01b031690565b6001600160a01b031603610ae15760405163af79b43760e01b815260040160405180910390fd5b600160008081601960010154610af791906131fa565b601954610b059085906131fa565b610b0f9190613251565b905080341015610b325760405163cd1c886760e01b815260040160405180910390fd5b610b3c87336117d4565b50505050505050565b60006001600160a01b038216610b71576040516322718ad960e21b8152600060048201526024016107b1565b506001600160a01b031660009081526009602052604090205490565b610b956115c1565b610b9f6000611887565b565b60016020528160005260406000208181548110610bbd57600080fd5b906000526020600020906002020160009150915050806000018054610be1906131aa565b80601f0160208091040260200160405190810160405280929190818152602001828054610c0d906131aa565b8015610c5a5780601f10610c2f57610100808354040283529160200191610c5a565b820191906000526020600020905b815481529060010190602001808311610c3d57829003601f168201915b5050505050908060010154905082565b6060600780546106d4906131aa565b6106c13383836118d9565b610c8c6115c1565b805160195560200151601a55565b6000828152601b602052604090206001015482906001600160a01b03163314610cd65760405163b2c3aa6b60e01b815260040160405180910390fd5b60006001600081601960010154610ced91906131fa565b601954610cfb9085906131fa565b610d059190613251565b905080341015610d285760405163cd1c886760e01b815260040160405180910390fd5b61011885511115610d4c576040516347e8b47560e11b815260040160405180910390fd5b6000868152601b60205260409020600201610d6786826132aa565b50857f12ff169b3905688bbb32ab9611e2de21543644c8a33bd49b6157844856a4ebb686604051610d989190612cb4565b60405180910390a2505050505050565b610db384848461078b565b6108153385858585611970565b6060610dcb82611691565b506040805160a08101825260138054825260145460208084019190915260155460ff8082161515858701526101009091041615156060840152601680548551818402810184019096528086526106a995889594936080860193919290830182828015610e5657602002820191906000526020600020905b815481526020019060010190808311610e42575b505050505081525050611a99565b60606000610e7183610a20565b6001600160a01b031603610e9b57604051637e27328960e01b8152600481018390526024016107b1565b6000610ea683610dc0565b6000848152601b6020526040812060020180549293509091610ec7906131aa565b80601f0160208091040260200160405190810160405280929190818152602001828054610ef3906131aa565b8015610f405780601f10610f1557610100808354040283529160200191610f40565b820191906000526020600020905b815481529060010190602001808311610f2357829003601f168201915b5050505050905060006002805490506001610f5b9190613251565b905060608251600003610fbb57816001600160401b03811115610f8057610f80612dd6565b604051908082528060200260200182016040528015610fb357816020015b6060815260200190600190039081610f9e5790505b509050611074565b81610fc581613369565b925050816001600160401b03811115610fe057610fe0612dd6565b60405190808252806020026020018201604052801561101357816020015b6060815260200190600190039081610ffe5790505b509050601b600087815260200190815260200160002060020160405160200161103c91906133f5565b60408051601f1981840301815291905281611058600185613443565b815181106110685761106861323b565b60200260200101819052505b6000868152601b602052604090205461108c90611cc9565b60405160200161109c9190613456565b60405160208183030381529060405281600280549050815181106110c2576110c261323b565b602002602001018190525060005b6002548110156111ed5760036000600283815481106110f1576110f161323b565b9060005260206000200154815260200190815260200160002060016000600284815481106111215761112161323b565b90600052602060002001548152602001908152602001600020600460008a81526020019081526020016000206000600285815481106111625761116261323b565b90600052602060002001548152602001908152602001600020548154811061118c5761118c61323b565b90600052602060002090600202016000016040516020016111ae9291906134b3565b6040516020818303038152906040528282815181106111cf576111cf61323b565b602002602001018190525080806111e590613369565b9150506110d0565b5061124d6111f96106c5565b61120288611cc9565b8661122685604051806040016040528060018152602001600b60fa1b815250611d5b565b6040516020016112399493929190613509565b604051602081830303815290604052611e04565b60405160200161125d919061362e565b604051602081830303815290604052945050505050919050565b6001600160a01b039182166000908152600b6020908152604080832093909416825291909152205460ff1690565b6112ad6115c1565b6001600160a01b0381166112d757604051631e4fbdf760e01b8152600060048201526024016107b1565b6112e081611887565b50565b336000908152601c602052604090205460ff166113135760405163ea8e4eb560e01b815260040160405180910390fd5b6112e081611e2a565b600080600061132a426117ae565b9250925092506017600001548214158061134657506018548114155b15611364576040516301f8564360e31b815260040160405180910390fd5b60006113786005546001600160a01b031690565b6001600160a01b03160361139f5760405163af79b43760e01b815260040160405180910390fd5b8351600080816019600101546113b591906131fa565b6019546113c39085906131fa565b6113cd9190613251565b9050803410156113f05760405163cd1c886760e01b815260040160405180910390fd5b606487511115611413576040516305beb17160e11b815260040160405180910390fd5b6019548751600091611424916131fa565b905060005b88518110156114b257338982815181106114455761144561323b565b6020026020010151602001906001600160a01b031690816001600160a01b031681525050600089828151811061147d5761147d61323b565b6020026020010151604001515111156114a057601a5461149d9083613251565b91505b806114aa81613369565b915050611429565b50803410156114d45760405163cd1c886760e01b815260040160405180910390fd5b6114dd88611e2a565b5050505050505050565b826000816040516020016114fb9190613673565b6040516020818303038152906040528051906020012090506000805b6002548110156115605782600282815481106115355761153561323b565b90600052602060002001540361154e5760019150611560565b8061155881613369565b915050611517565b50806115815782604051632827ddc960e11b81526004016107b19190612cb4565b6115896115c1565b611594868686611fdf565b505050505050565b60006001600160e01b0319821663152a902d60e11b14806106a957506106a9826120de565b6005546001600160a01b03163314610b9f5760405163118cdaa760e01b81523360048201526024016107b1565b6127106001600160601b03821681101561162d57604051636f483d0960e01b81526001600160601b0383166004820152602481018290526044016107b1565b6001600160a01b03831661165757604051635b6cc80560e11b8152600060048201526024016107b1565b50604080518082019091526001600160a01b039092168083526001600160601b039091166020909201829052600160a01b90910217601055565b6000818152600860205260408120546001600160a01b0316806106a957604051637e27328960e01b8152600481018490526024016107b1565b6109208383836001612103565b6000806116e5858585612209565b90506001600160a01b0381166117425761173d84600e80546000838152600f60205260408120829055600182018355919091527fbb7b4a454dc3493923482f07822329ed19e8244eff582cc204f8554c3620c3fd0155565b611765565b846001600160a01b0316816001600160a01b031614611765576117658185612302565b6001600160a01b0385166117815761177c84612383565b6117a4565b846001600160a01b0316816001600160a01b0316146117a4576117a48585612432565b90505b9392505050565b600080806117c76117c26201518086613227565b612482565b9196909550909350915050565b60006117df600e5490565b6117ea906001613251565b90506117f683826125f6565b6117ff4261265b565b6000828152601b6020526040902090815560010180546001600160a01b0319166001600160a01b03841617905561183581612676565b816001600160a01b0316836001600160a01b03167fcffd36860d38f331253ade8dba4c10f8d9f41de2c44fc68333db0542213e44f38360405161187a91815260200190565b60405180910390a3505050565b600580546001600160a01b038381166001600160a01b0319831681179093556040519116919082907f8be0079c531659141344cd1fd0a4f28419497f9722a3daafe3b4186f6b6457e090600090a35050565b6001600160a01b03821661190b57604051630b61174360e31b81526001600160a01b03831660048201526024016107b1565b6001600160a01b038381166000818152600b6020908152604080832094871680845294825291829020805460ff191686151590811790915591519182527f17307eab39ab6107e8899845ad3d59bd9653f200f220920489ca2b5937696c31910161187a565b6001600160a01b0383163b15611a9257604051630a85bd0160e11b81526001600160a01b0384169063150b7a02906119b290889088908790879060040161368f565b6020604051808303816000875af19250505080156119ed575060408051601f3d908101601f191682019092526119ea918101906136cc565b60015b611a56573d808015611a1b576040519150601f19603f3d011682016040523d82523d6000602084013e611a20565b606091505b508051600003611a4e57604051633250574960e11b81526001600160a01b03851660048201526024016107b1565b805181602001fd5b6001600160e01b03198116630a85bd0160e11b1461159457604051633250574960e11b81526001600160a01b03851660048201526024016107b1565b5050505050565b6002546060906000906001600160401b03811115611ab957611ab9612dd6565b604051908082528060200260200182016040528015611ae2578160200160208202803683370190505b50905060005b600254811015611c165760006001600060028481548110611b0b57611b0b61323b565b906000526020600020015481526020019081526020016000209050600060046000888152602001908152602001600020600060028581548110611b5057611b5061323b565b9060005260206000200154815260200190815260200160002054905081805490508110611bbf5760405162461bcd60e51b815260206004820152601960248201527f547261697420696e646578206f7574206f6620626f756e64730000000000000060448201526064016107b1565b818181548110611bd157611bd161323b565b906000526020600020906002020160010154848481518110611bf557611bf561323b565b60200260200101818152505050508080611c0e90613369565b915050611ae8565b506040805160a0810182526020808601518252855190820152848201511515818301526060808601511515908201526080810183905260005491516360e788d160e01b815290916001600160a01b0316906360e788d190611c7b9084906004016136e9565b600060405180830381865afa158015611c98573d6000803e3d6000fd5b505050506040513d6000823e601f3d908101601f19168201604052611cc09190810190613767565b95945050505050565b60606000611cd68361278e565b60010190506000816001600160401b03811115611cf557611cf5612dd6565b6040519080825280601f01601f191660200182016040528015611d1f576020820181803683370190505b5090508181016020015b600019016f181899199a1a9b1b9c1cb0b131b232b360811b600a86061a8153600a8504945084611d2957509392505050565b60608251600003611d7b57506040805160208101909152600081526106a9565b600083600081518110611d9057611d9061323b565b602002602001015190506000600190505b8451811015611dfc578184868381518110611dbe57611dbe61323b565b6020026020010151604051602001611dd8939291906137d4565b60405160208183030381529060405291508080611df490613369565b915050611da1565b509392505050565b60606106a982604051806060016040528060408152602001613951604091396001612866565b60005b8151811015611fa457610118828281518110611e4b57611e4b61323b565b602002602001015160400151511115611e77576040516347e8b47560e11b815260040160405180910390fd5b6000611e82600e5490565b611e8d906001613251565b9050611ed3838381518110611ea457611ea461323b565b602002602001015160000151848481518110611ec257611ec261323b565b6020026020010151602001516117d4565b6000838381518110611ee757611ee761323b565b602002602001015160400151511115611f9157828281518110611f0c57611f0c61323b565b602002602001015160400151601b60008381526020019081526020016000206002019081611f3a91906132aa565b50807f12ff169b3905688bbb32ab9611e2de21543644c8a33bd49b6157844856a4ebb6848481518110611f6f57611f6f61323b565b602002602001015160400151604051611f889190612cb4565b60405180910390a25b5080611f9c81613369565b915050611e2d565b50805160405190815233907f6174e73d7eb2fee6c482f87f81961b83cfa577f50c963bd1516f282497260fcd9060200160405180910390a250565b600080546040516320cfcfcd60e21b81526001600160a01b039091169063833f3f349034906120149086903390600401613817565b60206040518083038185885af1158015612032573d6000803e3d6000fd5b50505050506040513d601f19601f820116820180604052508101906120579190613841565b9050600160008560405160200161206e9190613673565b60408051601f19818403018152918152815160209283012083528282019390935290820160009081208351808501909452868452838301859052805460018101825590825291902082516002909202019081906120cb90826132aa565b5060208201518160010155505050505050565b60006001600160e01b0319821663780e9d6360e01b14806106a957506106a9826129e5565b808061211757506001600160a01b03821615155b156121d957600061212784611691565b90506001600160a01b038316158015906121535750826001600160a01b0316816001600160a01b031614155b801561216657506121648184611277565b155b1561218f5760405163a9fbf51f60e01b81526001600160a01b03841660048201526024016107b1565b81156121d75783856001600160a01b0316826001600160a01b03167f8c5be1e5ebec7d5bd14f71427d1e84f3dd0314c0f7b2291e5b200ac8c7c3b92560405160405180910390a45b505b50506000908152600a6020526040902080546001600160a01b0319166001600160a01b0392909216919091179055565b6000828152600860205260408120546001600160a01b039081169083161561223657612236818486612a35565b6001600160a01b0381161561227457612253600085600080612103565b6001600160a01b038116600090815260096020526040902080546000190190555b6001600160a01b038516156122a3576001600160a01b0385166000908152600960205260409020805460010190555b60008481526008602052604080822080546001600160a01b0319166001600160a01b0389811691821790925591518793918516917fddf252ad1be2c89b69c2b068fc378daa952ba7f163c4a11628f55a4df523b3ef91a4949350505050565b600061230d83610b45565b6000838152600d60209081526040808320546001600160a01b0388168452600c9092529091209192509081831461236457600083815260208281526040808320548584528184208190558352600d90915290208290555b6000938452600d60209081526040808620869055938552525081205550565b600e5460009061239590600190613443565b6000838152600f6020526040812054600e80549394509092849081106123bd576123bd61323b565b9060005260206000200154905080600e83815481106123de576123de61323b565b6000918252602080832090910192909255828152600f9091526040808220849055858252812055600e8054806124165761241661385a565b6001900381819060005260206000200160009055905550505050565b6000600161243f84610b45565b6124499190613443565b6001600160a01b039093166000908152600c602090815260408083208684528252808320859055938252600d9052919091209190915550565b60008080838162253d8c6124998362010bd9613870565b6124a39190613870565b9050600062023ab16124b6836004613898565b6124c091906138c8565b905060046124d18262023ab1613898565b6124dc906003613870565b6124e691906138c8565b6124f090836138f6565b9150600062164b09612503846001613870565b61250f90610fa0613898565b61251991906138c8565b90506004612529826105b5613898565b61253391906138c8565b61253d90846138f6565b61254890601f613870565b9250600061098f61255a856050613898565b61256491906138c8565b9050600060506125768361098f613898565b61258091906138c8565b61258a90866138f6565b9050612597600b836138c8565b94506125a485600c613898565b6125af836002613870565b6125b991906138f6565b915084836125c86031876138f6565b6125d3906064613898565b6125dd9190613870565b6125e79190613870565b9a919950975095505050505050565b6001600160a01b03821661262057604051633250574960e11b8152600060048201526024016107b1565b600061262e838360006116d7565b90506001600160a01b03811615610920576040516339e3563760e11b8152600060048201526024016107b1565b600061266d6117c26201518084613227565b50909392505050565b61267f81611691565b506000818152601b602052604090206003015460ff16156126b357604051639d02bf7b60e01b815260040160405180910390fd5b60005b60025460ff82161015612724576126cc81612a99565b60008381526004602052604081206002805491929160ff86169081106126f4576126f461323b565b9060005260206000200154815260200190815260200160002081905550808061271c9061391d565b9150506126b6565b5060125460408051426020808301919091526bffffffffffffffffffffffff193360601b168284015260548083019490945282518083039094018452607490910190915281519101206012556000908152601b60205260409020600301805460ff19166001179055565b60008072184f03e93ff9f4daa797ed6e38ed64bf6a1f0160401b83106127cd5772184f03e93ff9f4daa797ed6e38ed64bf6a1f0160401b830492506040015b6d04ee2d6d415b85acef810000000083106127f9576d04ee2d6d415b85acef8100000000830492506020015b662386f26fc10000831061281757662386f26fc10000830492506010015b6305f5e100831061282f576305f5e100830492506008015b612710831061284357612710830492506004015b60648310612855576064830492506002015b600a83106106a95760010192915050565b6060835160000361288657506040805160208101909152600081526117a7565b6000826128b75760038551600461289d91906131fa565b6128a8906002613251565b6128b29190613227565b6128dc565b6003855160026128c79190613251565b6128d19190613227565b6128dc9060046131fa565b90506000816001600160401b038111156128f8576128f8612dd6565b6040519080825280601f01601f191660200182016040528015612922576020820181803683370190505b50905060018501602082018788518901602081018051600082525b82841015612998576003840193508351603f8160121c168701518653600186019550603f81600c1c168701518653600186019550603f8160061c168701518653600186019550603f811687015186535060018501945061293d565b9052505085156129d9576003885106600181146129bc57600281146129cf576129d7565b603d6001830353603d60028303536129d7565b603d60018303535b505b50909695505050505050565b60006001600160e01b031982166380ac58cd60e01b1480612a1657506001600160e01b03198216635b5e139f60e01b145b806106a957506301ffc9a760e01b6001600160e01b03198316146106a9565b612a40838383612b6f565b610920576001600160a01b038316612a6e57604051637e27328960e01b8152600481018290526024016107b1565b60405163177e802f60e01b81526001600160a01b0383166004820152602481018290526044016107b1565b60025460009060ff831610612ae55760405162461bcd60e51b81526020600482015260126024820152715472616974206f7574206f662072616e676560701b60448201526064016107b1565b60006001600060028560ff1681548110612b0157612b0161323b565b906000526020600020015481526020019081526020016000208054905090508060125484604051602001612b4c92919091825260f81b6001600160f81b031916602082015260210190565b6040516020818303038152906040528051906020012060001c6117a7919061393c565b60006001600160a01b038316158015906117a45750826001600160a01b0316846001600160a01b03161480612ba95750612ba98484611277565b806117a45750506000908152600a60205260409020546001600160a01b03908116911614919050565b6001600160e01b0319811681146112e057600080fd5b600060208284031215612bfa57600080fd5b81356117a781612bd2565b80356001600160a01b0381168114612c1c57600080fd5b919050565b60008060408385031215612c3457600080fd5b612c3d83612c05565b915060208301356001600160601b0381168114612c5957600080fd5b809150509250929050565b60005b83811015612c7f578181015183820152602001612c67565b50506000910152565b60008151808452612ca0816020860160208601612c64565b601f01601f19169290920160200192915050565b6020815260006117a76020830184612c88565b600060208284031215612cd957600080fd5b5035919050565b60008060408385031215612cf357600080fd5b612cfc83612c05565b946020939093013593505050565b600080600060608486031215612d1f57600080fd5b612d2884612c05565b9250612d3660208501612c05565b9150604084013590509250925092565b60008060408385031215612d5957600080fd5b50508035926020909101359150565b600060208284031215612d7a57600080fd5b6117a782612c05565b60008060408385031215612d9657600080fd5b612d9f83612c05565b915060208301358015158114612c5957600080fd5b604081526000612dc76040830185612c88565b90508260208301529392505050565b634e487b7160e01b600052604160045260246000fd5b604051606081016001600160401b0381118282101715612e0e57612e0e612dd6565b60405290565b604051601f8201601f191681016001600160401b0381118282101715612e3c57612e3c612dd6565b604052919050565b600060408284031215612e5657600080fd5b604051604081018181106001600160401b0382111715612e7857612e78612dd6565b604052823581526020928301359281019290925250919050565b60006001600160401b03821115612eab57612eab612dd6565b50601f01601f191660200190565b6000612ecc612ec784612e92565b612e14565b9050828152838383011115612ee057600080fd5b828260208301376000602084830101529392505050565b600082601f830112612f0857600080fd5b6117a783833560208501612eb9565b60008060408385031215612f2a57600080fd5b8235915060208301356001600160401b03811115612f4757600080fd5b612f5385828601612ef7565b9150509250929050565b60008060008060808587031215612f7357600080fd5b612f7c85612c05565b9350612f8a60208601612c05565b92506040850135915060608501356001600160401b03811115612fac57600080fd5b8501601f81018713612fbd57600080fd5b612fcc87823560208401612eb9565b91505092959194509250565b60008060408385031215612feb57600080fd5b612ff483612c05565b915061300260208401612c05565b90509250929050565b6000602080838503121561301e57600080fd5b82356001600160401b038082111561303557600080fd5b818501915085601f83011261304957600080fd5b81358181111561305b5761305b612dd6565b8060051b61306a858201612e14565b918252838101850191858101908984111561308457600080fd5b86860192505b83831015613116578235858111156130a25760008081fd5b86016060818c03601f19018113156130ba5760008081fd5b6130c2612dec565b6130cd8a8401612c05565b815260406130dc818501612c05565b828c01529183013591888311156130f35760008081fd5b6131018e8c85870101612ef7565b9082015284525050918601919086019061308a565b9998505050505050505050565b60008060006060848603121561313857600080fd5b83356001600160401b038082111561314f57600080fd5b61315b87838801612ef7565b9450602086013591508082111561317157600080fd5b61317d87838801612ef7565b9350604086013591508082111561319357600080fd5b506131a086828701612ef7565b9150509250925092565b600181811c908216806131be57607f821691505b6020821081036131de57634e487b7160e01b600052602260045260246000fd5b50919050565b634e487b7160e01b600052601160045260246000fd5b80820281158282048414176106a9576106a96131e4565b634e487b7160e01b600052601260045260246000fd5b60008261323657613236613211565b500490565b634e487b7160e01b600052603260045260246000fd5b808201808211156106a9576106a96131e4565b601f82111561092057600081815260208120601f850160051c8101602086101561328b5750805b601f850160051c820191505b8181101561159457828155600101613297565b81516001600160401b038111156132c3576132c3612dd6565b6132d7816132d184546131aa565b84613264565b602080601f83116001811461330c57600084156132f45750858301515b600019600386901b1c1916600185901b178555611594565b600085815260208120601f198616915b8281101561333b5788860151825594840194600190910190840161331c565b50858210156133595787850151600019600388901b60f8161c191681555b5050505050600190811b01905550565b60006001820161337b5761337b6131e4565b5060010190565b6000815461338f816131aa565b600182811680156133a757600181146133bc576133eb565b60ff19841687528215158302870194506133eb565b8560005260208060002060005b858110156133e25781548a8201529084019082016133c9565b50505082870194505b5050505092915050565b7f7b2274726169745f74797065223a224d657373616765222c2276616c7565223a8152601160f91b602082015260006134316021830184613382565b61227d60f01b81526002019392505050565b818103818111156106a9576106a96131e4565b7f7b2274726169745f74797065223a224d696e742059656172222c2276616c7565815262111d1160e91b60208201526000825161349a816023850160208701612c64565b61227d60f01b6023939091019283015250602501919050565b6e3d913a3930b4ba2fba3cb832911d1160891b815260006134d7600f830185613382565b6a1116113b30b63ab2911d1160a91b81526134f5600b820185613382565b61227d60f01b815260020195945050505050565b683d913730b6b2911d1160b91b8152845160009061352e816009850160208a01612c64565b61202360f01b600991840191820152855161355081600b840160208a01612c64565b7f222c226465736372697074696f6e223a22416e20696d6d757461626c65205661600b92909101918201527f6c656e74696e652773204461792043617264204e46542e222c22696d61676522602b8201527f3a22646174613a696d6167652f7376672b786d6c3b6261736536342c00000000604b82015284516135da816067840160208901612c64565b6f222c2261747472696275746573223a5b60801b60679290910191820152835161360b816077840160208801612c64565b613622607782840101615d7d60f01b815260020190565b98975050505050505050565b7f646174613a6170706c69636174696f6e2f6a736f6e3b6261736536342c00000081526000825161366681601d850160208701612c64565b91909101601d0192915050565b60008251613685818460208701612c64565b9190910192915050565b6001600160a01b03858116825284166020820152604081018390526080606082018190526000906136c290830184612c88565b9695505050505050565b6000602082840312156136de57600080fd5b81516117a781612bd2565b6000602080835260c08301845182850152818501516040850152604085015115156060850152606085015115156080850152608085015160a08086015281815180845260e0870191508483019350600092505b8083101561375c578351825292840192600192909201919084019061373c565b509695505050505050565b60006020828403121561377957600080fd5b81516001600160401b0381111561378f57600080fd5b8201601f810184136137a057600080fd5b80516137ae612ec782612e92565b8181528560208385010111156137c357600080fd5b611cc0826020830160208601612c64565b600084516137e6818460208901612c64565b8451908301906137fa818360208901612c64565b845191019061380d818360208801612c64565b0195945050505050565b60408152600061382a6040830185612c88565b905060018060a01b03831660208301529392505050565b60006020828403121561385357600080fd5b5051919050565b634e487b7160e01b600052603160045260246000fd5b8082018281126000831280158216821582161715613890576138906131e4565b505092915050565b80820260008212600160ff1b841416156138b4576138b46131e4565b81810583148215176106a9576106a96131e4565b6000826138d7576138d7613211565b600160ff1b8214600019841416156138f1576138f16131e4565b500590565b8181036000831280158383131683831282161715613916576139166131e4565b5092915050565b600060ff821660ff8103613933576139336131e4565b60010192915050565b60008261394b5761394b613211565b50069056fe4142434445464748494a4b4c4d4e4f505152535455565758595a6162636465666768696a6b6c6d6e6f707172737475767778797a303132333435363738392b2fa264697066735822122046ab318e0425941c5834125f786bb61291bc396c3da331bce9f7ab5542dcea4064736f6c63430008140033",
  "linkReferences": {},
  "deployedLinkReferences": {}
}