{
  "_format": "hh-sol-artifact-1",
  "contractName": "ValentineNFT",
  "sourceName": "contracts/valentine.sol",
  "abi": [
    {
      "inputs": [
        {
          "internalType": "string",
          "name": "_name",
          "type": "string"
        },
        {
          "internalType": "string",
          "name": "_symbol",
          "type": "string"
        },
        {
          "internalType": "string[]",
          "name": "_traitIds",
          "type": "string[]"
        },
        {
          "internalType": "string[]",
          "name": "_traitLabels",
          "type": "string[]"
        },
        {
          "internalType": "address",
          "name": "_SVGAssembler",
          "type": "address"
        },
        {
          "components": [
            {
              "internalType": "uint256",
              "name": "card",
              "type": "uint256"
            },
            {
              "internalType": "uint256",
              "name": "message",
              "type": "uint256"
            }
          ],
          "internalType": "struct ValentineNFT.Price",
          "name": "_mintPrice",
          "type": "tuple"
        },
        {
          "components": [
            {
              "internalType": "uint256",
              "name": "month",
              "type": "uint256"
            },
            {
              "internalType": "uint256",
              "name": "day",
              "type": "uint256"
            }
          ],
          "internalType": "struct ValentineNFT.Date",
          "name": "_valentineDate",
          "type": "tuple"
        }
      ],
      "stateMutability": "nonpayable",
      "type": "constructor"
    },
    {
      "inputs": [],
      "name": "BatchTooLarge",
      "type": "error"
    },
    {
      "inputs": [
        {
          "internalType": "uint256",
          "name": "numerator",
          "type": "uint256"
        },
        {
          "internalType": "uint256",
          "name": "denominator",
          "type": "uint256"
        }
      ],
      "name": "ERC2981InvalidDefaultRoyalty",
      "type": "error"
    },
    {
      "inputs": [
        {
          "internalType": "address",
          "name": "receiver",
          "type": "address"
        }
      ],
      "name": "ERC2981InvalidDefaultRoyaltyReceiver",
      "type": "error"
    },
    {
      "inputs": [
        {
          "internalType": "uint256",
          "name": "tokenId",
          "type": "uint256"
        },
        {
          "internalType": "uint256",
          "name": "numerator",
          "type": "uint256"
        },
        {
          "internalType": "uint256",
          "name": "denominator",
          "type": "uint256"
        }
      ],
      "name": "ERC2981InvalidTokenRoyalty",
      "type": "error"
    },
    {
      "inputs": [
        {
          "internalType": "uint256",
          "name": "tokenId",
          "type": "uint256"
        },
        {
          "internalType": "address",
          "name": "receiver",
          "type": "address"
        }
      ],
      "name": "ERC2981InvalidTokenRoyaltyReceiver",
      "type": "error"
    },
    {
      "inputs": [],
      "name": "ERC721EnumerableForbiddenBatchMint",
      "type": "error"
    },
    {
      "inputs": [
        {
          "internalType": "address",
          "name": "sender",
          "type": "address"
        },
        {
          "internalType": "uint256",
          "name": "tokenId",
          "type": "uint256"
        },
        {
          "internalType": "address",
          "name": "owner",
          "type": "address"
        }
      ],
      "name": "ERC721IncorrectOwner",
      "type": "error"
    },
    {
      "inputs": [
        {
          "internalType": "address",
          "name": "operator",
          "type": "address"
        },
        {
          "internalType": "uint256",
          "name": "tokenId",
          "type": "uint256"
        }
      ],
      "name": "ERC721InsufficientApproval",
      "type": "error"
    },
    {
      "inputs": [
        {
          "internalType": "address",
          "name": "approver",
          "type": "address"
        }
      ],
      "name": "ERC721InvalidApprover",
      "type": "error"
    },
    {
      "inputs": [
        {
          "internalType": "address",
          "name": "operator",
          "type": "address"
        }
      ],
      "name": "ERC721InvalidOperator",
      "type": "error"
    },
    {
      "inputs": [
        {
          "internalType": "address",
          "name": "owner",
          "type": "address"
        }
      ],
      "name": "ERC721InvalidOwner",
      "type": "error"
    },
    {
      "inputs": [
        {
          "internalType": "address",
          "name": "receiver",
          "type": "address"
        }
      ],
      "name": "ERC721InvalidReceiver",
      "type": "error"
    },
    {
      "inputs": [
        {
          "internalType": "address",
          "name": "sender",
          "type": "address"
        }
      ],
      "name": "ERC721InvalidSender",
      "type": "error"
    },
    {
      "inputs": [
        {
          "internalType": "uint256",
          "name": "tokenId",
          "type": "uint256"
        }
      ],
      "name": "ERC721NonexistentToken",
      "type": "error"
    },
    {
      "inputs": [
        {
          "internalType": "address",
          "name": "owner",
          "type": "address"
        },
        {
          "internalType": "uint256",
          "name": "index",
          "type": "uint256"
        }
      ],
      "name": "ERC721OutOfBoundsIndex",
      "type": "error"
    },
    {
      "inputs": [],
      "name": "InsufficientPayment",
      "type": "error"
    },
    {
      "inputs": [
        {
          "internalType": "string",
          "name": "traitId",
          "type": "string"
        }
      ],
      "name": "InvalidTraitId",
      "type": "error"
    },
    {
      "inputs": [],
      "name": "MessageTooLong",
      "type": "error"
    },
    {
      "inputs": [],
      "name": "MintingDisabled",
      "type": "error"
    },
    {
      "inputs": [],
      "name": "NotAuthorized",
      "type": "error"
    },
    {
      "inputs": [],
      "name": "NotMintDate",
      "type": "error"
    },
    {
      "inputs": [],
      "name": "NotMintYear",
      "type": "error"
    },
    {
      "inputs": [],
      "name": "NotSender",
      "type": "error"
    },
    {
      "inputs": [
        {
          "internalType": "address",
          "name": "owner",
          "type": "address"
        }
      ],
      "name": "OwnableInvalidOwner",
      "type": "error"
    },
    {
      "inputs": [
        {
          "internalType": "address",
          "name": "account",
          "type": "address"
        }
      ],
      "name": "OwnableUnauthorizedAccount",
      "type": "error"
    },
    {
      "inputs": [],
      "name": "StatsAlreadyGenerated",
      "type": "error"
    },
    {
      "inputs": [
        {
          "internalType": "uint256",
          "name": "value",
          "type": "uint256"
        },
        {
          "internalType": "uint256",
          "name": "length",
          "type": "uint256"
        }
      ],
      "name": "StringsInsufficientHexLength",
      "type": "error"
    },
    {
      "inputs": [
        {
          "internalType": "uint256",
          "name": "value",
          "type": "uint256"
        }
      ],
      "name": "Unoriginal",
      "type": "error"
    },
    {
      "anonymous": false,
      "inputs": [
        {
          "indexed": true,
          "internalType": "address",
          "name": "owner",
          "type": "address"
        },
        {
          "indexed": true,
          "internalType": "address",
          "name": "approved",
          "type": "address"
        },
        {
          "indexed": true,
          "internalType": "uint256",
          "name": "tokenId",
          "type": "uint256"
        }
      ],
      "name": "Approval",
      "type": "event"
    },
    {
      "anonymous": false,
      "inputs": [
        {
          "indexed": true,
          "internalType": "address",
          "name": "owner",
          "type": "address"
        },
        {
          "indexed": true,
          "internalType": "address",
          "name": "operator",
          "type": "address"
        },
        {
          "indexed": false,
          "internalType": "bool",
          "name": "approved",
          "type": "bool"
        }
      ],
      "name": "ApprovalForAll",
      "type": "event"
    },
    {
      "anonymous": false,
      "inputs": [
        {
          "indexed": true,
          "internalType": "address",
          "name": "minter",
          "type": "address"
        },
        {
          "indexed": false,
          "internalType": "uint256",
          "name": "quantity",
          "type": "uint256"
        }
      ],
      "name": "BatchMinted",
      "type": "event"
    },
    {
      "anonymous": false,
      "inputs": [
        {
          "indexed": true,
          "internalType": "uint256",
          "name": "tokenId",
          "type": "uint256"
        },
        {
          "indexed": false,
          "internalType": "string",
          "name": "message",
          "type": "string"
        }
      ],
      "name": "MessageAdded",
      "type": "event"
    },
    {
      "anonymous": false,
      "inputs": [
        {
          "indexed": true,
          "internalType": "address",
          "name": "previousOwner",
          "type": "address"
        },
        {
          "indexed": true,
          "internalType": "address",
          "name": "newOwner",
          "type": "address"
        }
      ],
      "name": "OwnershipTransferred",
      "type": "event"
    },
    {
      "anonymous": false,
      "inputs": [
        {
          "indexed": true,
          "internalType": "address",
          "name": "from",
          "type": "address"
        },
        {
          "indexed": true,
          "internalType": "address",
          "name": "to",
          "type": "address"
        },
        {
          "indexed": true,
          "internalType": "uint256",
          "name": "tokenId",
          "type": "uint256"
        }
      ],
      "name": "Transfer",
      "type": "event"
    },
    {
      "anonymous": false,
      "inputs": [
        {
          "indexed": true,
          "internalType": "address",
          "name": "to",
          "type": "address"
        },
        {
          "indexed": true,
          "internalType": "address",
          "name": "from",
          "type": "address"
        },
        {
          "indexed": false,
          "internalType": "uint256",
          "name": "tokenId",
          "type": "uint256"
        }
      ],
      "name": "ValentineMinted",
      "type": "event"
    },
    {
      "inputs": [],
      "name": "MAX_BATCH_SIZE",
      "outputs": [
        {
          "internalType": "uint256",
          "name": "",
          "type": "uint256"
        }
      ],
      "stateMutability": "view",
      "type": "function"
    },
    {
      "inputs": [],
      "name": "MAX_MESSAGE_LENGTH",
      "outputs": [
        {
          "internalType": "uint256",
          "name": "",
          "type": "uint256"
        }
      ],
      "stateMutability": "view",
      "type": "function"
    },
    {
      "inputs": [
        {
          "internalType": "address",
          "name": "",
          "type": "address"
        }
      ],
      "name": "_isScheduler",
      "outputs": [
        {
          "internalType": "bool",
          "name": "",
          "type": "bool"
        }
      ],
      "stateMutability": "view",
      "type": "function"
    },
    {
      "inputs": [
        {
          "internalType": "uint256",
          "name": "tokenId",
          "type": "uint256"
        },
        {
          "internalType": "string",
          "name": "message",
          "type": "string"
        }
      ],
      "name": "addMessage",
      "outputs": [],
      "stateMutability": "payable",
      "type": "function"
    },
    {
      "inputs": [
        {
          "internalType": "address",
          "name": "to",
          "type": "address"
        },
        {
          "internalType": "uint256",
          "name": "tokenId",
          "type": "uint256"
        }
      ],
      "name": "approve",
      "outputs": [],
      "stateMutability": "nonpayable",
      "type": "function"
    },
    {
      "inputs": [
        {
          "internalType": "address",
          "name": "owner",
          "type": "address"
        }
      ],
      "name": "balanceOf",
      "outputs": [
        {
          "internalType": "uint256",
          "name": "",
          "type": "uint256"
        }
      ],
      "stateMutability": "view",
      "type": "function"
    },
    {
      "inputs": [
        {
          "components": [
            {
              "internalType": "address",
              "name": "to",
              "type": "address"
            },
            {
              "internalType": "address",
              "name": "from",
              "type": "address"
            },
            {
              "internalType": "string",
              "name": "message",
              "type": "string"
            }
          ],
          "internalType": "struct ValentineNFT.Valentine[]",
          "name": "_valentines",
          "type": "tuple[]"
        }
      ],
      "name": "bulkMint",
      "outputs": [],
      "stateMutability": "payable",
      "type": "function"
    },
    {
      "inputs": [
        {
          "internalType": "uint256",
          "name": "tokenId",
          "type": "uint256"
        }
      ],
      "name": "getApproved",
      "outputs": [
        {
          "internalType": "address",
          "name": "",
          "type": "address"
        }
      ],
      "stateMutability": "view",
      "type": "function"
    },
    {
      "inputs": [
        {
          "internalType": "uint256",
          "name": "tokenId",
          "type": "uint256"
        }
      ],
      "name": "getTokenSVG",
      "outputs": [
        {
          "internalType": "string",
          "name": "svg",
          "type": "string"
        }
      ],
      "stateMutability": "view",
      "type": "function"
    },
    {
      "inputs": [
        {
          "internalType": "bytes32",
          "name": "_traitId",
          "type": "bytes32"
        }
      ],
      "name": "getTraitData",
      "outputs": [
        {
          "components": [
            {
              "internalType": "string",
              "name": "traitName",
              "type": "string"
            },
            {
              "internalType": "bytes32",
              "name": "svgAddress",
              "type": "bytes32"
            }
          ],
          "internalType": "struct ERC721GenerativeSVG.Trait[]",
          "name": "",
          "type": "tuple[]"
        }
      ],
      "stateMutability": "view",
      "type": "function"
    },
    {
      "inputs": [
        {
          "internalType": "address",
          "name": "owner",
          "type": "address"
        },
        {
          "internalType": "address",
          "name": "operator",
          "type": "address"
        }
      ],
      "name": "isApprovedForAll",
      "outputs": [
        {
          "internalType": "bool",
          "name": "",
          "type": "bool"
        }
      ],
      "stateMutability": "view",
      "type": "function"
    },
    {
      "inputs": [
        {
          "internalType": "address",
          "name": "_to",
          "type": "address"
        }
      ],
      "name": "mint",
      "outputs": [],
      "stateMutability": "payable",
      "type": "function"
    },
    {
      "inputs": [],
      "name": "mintPrice",
      "outputs": [
        {
          "internalType": "uint256",
          "name": "card",
          "type": "uint256"
        },
        {
          "internalType": "uint256",
          "name": "message",
          "type": "uint256"
        }
      ],
      "stateMutability": "view",
      "type": "function"
    },
    {
      "inputs": [],
      "name": "name",
      "outputs": [
        {
          "internalType": "string",
          "name": "",
          "type": "string"
        }
      ],
      "stateMutability": "view",
      "type": "function"
    },
    {
      "inputs": [],
      "name": "owner",
      "outputs": [
        {
          "internalType": "address",
          "name": "",
          "type": "address"
        }
      ],
      "stateMutability": "view",
      "type": "function"
    },
    {
      "inputs": [
        {
          "internalType": "uint256",
          "name": "tokenId",
          "type": "uint256"
        }
      ],
      "name": "ownerOf",
      "outputs": [
        {
          "internalType": "address",
          "name": "",
          "type": "address"
        }
      ],
      "stateMutability": "view",
      "type": "function"
    },
    {
      "inputs": [],
      "name": "renounceOwnership",
      "outputs": [],
      "stateMutability": "nonpayable",
      "type": "function"
    },
    {
      "inputs": [
        {
          "internalType": "uint256",
          "name": "tokenId",
          "type": "uint256"
        },
        {
          "internalType": "uint256",
          "name": "salePrice",
          "type": "uint256"
        }
      ],
      "name": "royaltyInfo",
      "outputs": [
        {
          "internalType": "address",
          "name": "receiver",
          "type": "address"
        },
        {
          "internalType": "uint256",
          "name": "amount",
          "type": "uint256"
        }
      ],
      "stateMutability": "view",
      "type": "function"
    },
    {
      "inputs": [
        {
          "internalType": "address",
          "name": "from",
          "type": "address"
        },
        {
          "internalType": "address",
          "name": "to",
          "type": "address"
        },
        {
          "internalType": "uint256",
          "name": "tokenId",
          "type": "uint256"
        }
      ],
      "name": "safeTransferFrom",
      "outputs": [],
      "stateMutability": "nonpayable",
      "type": "function"
    },
    {
      "inputs": [
        {
          "internalType": "address",
          "name": "from",
          "type": "address"
        },
        {
          "internalType": "address",
          "name": "to",
          "type": "address"
        },
        {
          "internalType": "uint256",
          "name": "tokenId",
          "type": "uint256"
        },
        {
          "internalType": "bytes",
          "name": "data",
          "type": "bytes"
        }
      ],
      "name": "safeTransferFrom",
      "outputs": [],
      "stateMutability": "nonpayable",
      "type": "function"
    },
    {
      "inputs": [
        {
          "components": [
            {
              "internalType": "address",
              "name": "to",
              "type": "address"
            },
            {
              "internalType": "address",
              "name": "from",
              "type": "address"
            },
            {
              "internalType": "string",
              "name": "message",
              "type": "string"
            }
          ],
          "internalType": "struct ValentineNFT.Valentine[]",
          "name": "_valentines",
          "type": "tuple[]"
        }
      ],
      "name": "schedulerMint",
      "outputs": [],
      "stateMutability": "payable",
      "type": "function"
    },
    {
      "inputs": [
        {
          "internalType": "address",
          "name": "operator",
          "type": "address"
        },
        {
          "internalType": "bool",
          "name": "approved",
          "type": "bool"
        }
      ],
      "name": "setApprovalForAll",
      "outputs": [],
      "stateMutability": "nonpayable",
      "type": "function"
    },
    {
      "inputs": [
        {
          "internalType": "address",
          "name": "receiver",
          "type": "address"
        },
        {
          "internalType": "uint96",
          "name": "feeNumerator",
          "type": "uint96"
        }
      ],
      "name": "setDefaultRoyalty",
      "outputs": [],
      "stateMutability": "nonpayable",
      "type": "function"
    },
    {
      "inputs": [
        {
          "components": [
            {
              "internalType": "uint256",
              "name": "card",
              "type": "uint256"
            },
            {
              "internalType": "uint256",
              "name": "message",
              "type": "uint256"
            }
          ],
          "internalType": "struct ValentineNFT.Price",
          "name": "_price",
          "type": "tuple"
        }
      ],
      "name": "setPrice",
      "outputs": [],
      "stateMutability": "nonpayable",
      "type": "function"
    },
    {
      "inputs": [
        {
          "internalType": "string",
          "name": "_traitId",
          "type": "string"
        },
        {
          "internalType": "string",
          "name": "_traitValue",
          "type": "string"
        },
        {
          "internalType": "string",
          "name": "_svg",
          "type": "string"
        }
      ],
      "name": "setSVGLayer",
      "outputs": [],
      "stateMutability": "payable",
      "type": "function"
    },
    {
      "inputs": [
        {
          "internalType": "address",
          "name": "_schedulerContract",
          "type": "address"
        },
        {
          "internalType": "bool",
          "name": "_status",
          "type": "bool"
        }
      ],
      "name": "setSchedulerAddress",
      "outputs": [],
      "stateMutability": "nonpayable",
      "type": "function"
    },
    {
      "inputs": [
        {
          "internalType": "bytes4",
          "name": "interfaceId",
          "type": "bytes4"
        }
      ],
      "name": "supportsInterface",
      "outputs": [
        {
          "internalType": "bool",
          "name": "",
          "type": "bool"
        }
      ],
      "stateMutability": "view",
      "type": "function"
    },
    {
      "inputs": [],
      "name": "symbol",
      "outputs": [
        {
          "internalType": "string",
          "name": "",
          "type": "string"
        }
      ],
      "stateMutability": "view",
      "type": "function"
    },
    {
      "inputs": [
        {
          "internalType": "uint256",
          "name": "index",
          "type": "uint256"
        }
      ],
      "name": "tokenByIndex",
      "outputs": [
        {
          "internalType": "uint256",
          "name": "",
          "type": "uint256"
        }
      ],
      "stateMutability": "view",
      "type": "function"
    },
    {
      "inputs": [
        {
          "internalType": "address",
          "name": "owner",
          "type": "address"
        },
        {
          "internalType": "uint256",
          "name": "index",
          "type": "uint256"
        }
      ],
      "name": "tokenOfOwnerByIndex",
      "outputs": [
        {
          "internalType": "uint256",
          "name": "",
          "type": "uint256"
        }
      ],
      "stateMutability": "view",
      "type": "function"
    },
    {
      "inputs": [
        {
          "internalType": "uint256",
          "name": "_tokenId",
          "type": "uint256"
        }
      ],
      "name": "tokenURI",
      "outputs": [
        {
          "internalType": "string",
          "name": "",
          "type": "string"
        }
      ],
      "stateMutability": "view",
      "type": "function"
    },
    {
      "inputs": [],
      "name": "totalSupply",
      "outputs": [
        {
          "internalType": "uint256",
          "name": "",
          "type": "uint256"
        }
      ],
      "stateMutability": "view",
      "type": "function"
    },
    {
      "inputs": [
        {
          "internalType": "address",
          "name": "from",
          "type": "address"
        },
        {
          "internalType": "address",
          "name": "to",
          "type": "address"
        },
        {
          "internalType": "uint256",
          "name": "tokenId",
          "type": "uint256"
        }
      ],
      "name": "transferFrom",
      "outputs": [],
      "stateMutability": "nonpayable",
      "type": "function"
    },
    {
      "inputs": [
        {
          "internalType": "address",
          "name": "newOwner",
          "type": "address"
        }
      ],
      "name": "transferOwnership",
      "outputs": [],
      "stateMutability": "nonpayable",
      "type": "function"
    },
    {
      "inputs": [],
      "name": "valentineDate",
      "outputs": [
        {
          "internalType": "uint256",
          "name": "month",
          "type": "uint256"
        },
        {
          "internalType": "uint256",
          "name": "day",
          "type": "uint256"
        }
      ],
      "stateMutability": "view",
      "type": "function"
    },
    {
      "inputs": [
        {
          "internalType": "address",
          "name": "to",
          "type": "address"
        }
      ],
      "name": "withdraw",
      "outputs": [],
      "stateMutability": "nonpayable",
      "type": "function"
    }
  ],
  "bytecode": "0x60806040523480156200001157600080fd5b5060405162004632380380620046328339810160408190526200003491620006aa565b868633878787620000468383620001c9565b600080546001600160a01b0319166001600160a01b03928316179055831691506200008e905057604051631e4fbdf760e01b8152600060048201526024015b60405180910390fd5b62000099816200032b565b506006620000a883826200082c565b506007620000b782826200082c565b5050506040518060a0016040528061021c81526020016102f4815260200160011515815260200160011515815260200160028054806020026020016040519081016040528092919081815260200182805480156200013557602002820191906000526020600020905b81548152602001906001019080831162000120575b50505091909252505080516013908155602080830151601455604083015160158054606086015115156101000261ff00199315159390931661ffff1990911617919091179055608083015180516200019292601692019062000424565b50508151601755506020808201516018558251601955820151601a55620001bc336101f46200037d565b5050505050505062000954565b8051825114620002325760405162461bcd60e51b815260206004820152602d60248201527f54726169742049447320616e64206e616d6573206d757374206861766520746860448201526c0ca40e6c2daca40d8cadccee8d609b1b606482015260840162000085565b620002406002600062000474565b60005b825181101562000326576000838281518110620002645762000264620008f8565b60200260200101516040516020016200027e91906200090e565b60408051601f198184030181529190528051602090910120600280546001810182556000919091527f405787fa12a823e0f2b7631cc41b3ba8828b3321ca811111fa75cd3aa3bb5ace018190558351909150839083908110620002e557620002e5620008f8565b60200260200101516003600083815260200190815260200160002090816200030e91906200082c565b505080806200031d906200092c565b91505062000243565b505050565b600580546001600160a01b038381166001600160a01b0319831681179093556040519116919082907f8be0079c531659141344cd1fd0a4f28419497f9722a3daafe3b4186f6b6457e090600090a35050565b6127106001600160601b038216811015620003be57604051636f483d0960e01b81526001600160601b03831660048201526024810182905260440162000085565b6001600160a01b038316620003ea57604051635b6cc80560e11b81526000600482015260240162000085565b50604080518082019091526001600160a01b039092168083526001600160601b039091166020909201829052600160a01b90910217601055565b82805482825590600052602060002090810192821562000462579160200282015b828111156200046257825182559160200191906001019062000445565b506200047092915062000497565b5090565b508054600082559060005260206000209081019062000494919062000497565b50565b5b8082111562000470576000815560010162000498565b634e487b7160e01b600052604160045260246000fd5b604051601f8201601f191681016001600160401b0381118282101715620004ef57620004ef620004ae565b604052919050565b60005b8381101562000514578181015183820152602001620004fa565b50506000910152565b600082601f8301126200052f57600080fd5b81516001600160401b038111156200054b576200054b620004ae565b62000560601f8201601f1916602001620004c4565b8181528460208386010111156200057657600080fd5b62000589826020830160208701620004f7565b949350505050565b600082601f830112620005a357600080fd5b815160206001600160401b0380831115620005c257620005c2620004ae565b8260051b620005d3838201620004c4565b9384528581018301938381019088861115620005ee57600080fd5b84880192505b858310156200062f578251848111156200060e5760008081fd5b6200061e8a87838c01016200051d565b8352509184019190840190620005f4565b98975050505050505050565b80516001600160a01b03811681146200065357600080fd5b919050565b6000604082840312156200066b57600080fd5b604080519081016001600160401b0381118282101715620006905762000690620004ae565b604052825181526020928301519281019290925250919050565b6000806000806000806000610120888a031215620006c757600080fd5b87516001600160401b0380821115620006df57600080fd5b620006ed8b838c016200051d565b985060208a01519150808211156200070457600080fd5b620007128b838c016200051d565b975060408a01519150808211156200072957600080fd5b620007378b838c0162000591565b965060608a01519150808211156200074e57600080fd5b506200075d8a828b0162000591565b9450506200076e608089016200063b565b92506200077f8960a08a0162000658565b9150620007908960e08a0162000658565b905092959891949750929550565b600181811c90821680620007b357607f821691505b602082108103620007d457634e487b7160e01b600052602260045260246000fd5b50919050565b601f8211156200032657600081815260208120601f850160051c81016020861015620008035750805b601f850160051c820191505b8181101562000824578281556001016200080f565b505050505050565b81516001600160401b03811115620008485762000848620004ae565b62000860816200085984546200079e565b84620007da565b602080601f8311600181146200089857600084156200087f5750858301515b600019600386901b1c1916600185901b17855562000824565b600085815260208120601f198616915b82811015620008c957888601518255948401946001909101908401620008a8565b5085821015620008e85787850151600019600388901b60f8161c191681555b5050505050600190811b01905550565b634e487b7160e01b600052603260045260246000fd5b6000825162000922818460208701620004f7565b9190910192915050565b6000600182016200094d57634e487b7160e01b600052601160045260246000fd5b5060010190565b613cce80620009646000396000f3fe60806040526004361061020f5760003560e01c8063715018a611610118578063c7ab2dbc116100a0578063ed99c2ee1161006f578063ed99c2ee14610629578063f2fde38b14610644578063f3658eb114610664578063fa2ff09414610677578063fd6f66131461068a57600080fd5b8063c7ab2dbc146105b4578063c87b56dd146105d4578063cfdbf254146105f4578063e985e9c51461060957600080fd5b80639cc53bc8116100e75780639cc53bc814610511578063a22cb46514610541578063a8d3243414610561578063afa4987514610581578063b88d4fde1461059457600080fd5b8063715018a61461049c57806381ff25e4146104b15780638da5cb5b146104de57806395d89b41146104fc57600080fd5b80632f745c591161019b5780636352211e1161016a5780636352211e146103f9578063673889a0146104195780636817c76c146104395780636a6278421461046957806370a082311461047c57600080fd5b80632f745c591461037957806342842e0e146103995780634f6ccce7146103b957806351cff8d9146103d957600080fd5b8063095ea7b3116101e2578063095ea7b3146102c557806318160ddd146102e557806323b872dd146103045780632a027211146103245780632a55205a1461033a57600080fd5b806301ffc9a71461021457806304634d8d1461024957806306fdde031461026b578063081812fc1461028d575b600080fd5b34801561022057600080fd5b5061023461022f366004612e34565b61069d565b60405190151581526020015b60405180910390f35b34801561025557600080fd5b50610269610264366004612e6d565b6106ae565b005b34801561027757600080fd5b506102806106c4565b6040516102409190612f00565b34801561029957600080fd5b506102ad6102a8366004612f13565b610756565b6040516001600160a01b039091168152602001610240565b3480156102d157600080fd5b506102696102e0366004612f2c565b61077f565b3480156102f157600080fd5b50600e545b604051908152602001610240565b34801561031057600080fd5b5061026961031f366004612f56565b61078a565b34801561033057600080fd5b506102f661011881565b34801561034657600080fd5b5061035a610355366004612f92565b61081a565b604080516001600160a01b039093168352602083019190915201610240565b34801561038557600080fd5b506102f6610394366004612f2c565b61089f565b3480156103a557600080fd5b506102696103b4366004612f56565b610904565b3480156103c557600080fd5b506102f66103d4366004612f13565b610924565b3480156103e557600080fd5b506102696103f4366004612fb4565b61097d565b34801561040557600080fd5b506102ad610414366004612f13565b610a1f565b34801561042557600080fd5b50610269610434366004612fcf565b610a2a565b34801561044557600080fd5b50601954601a54610454919082565b60408051928352602083019190915201610240565b610269610477366004612fb4565b610a5d565b34801561048857600080fd5b506102f6610497366004612fb4565b610b44565b3480156104a857600080fd5b50610269610b8c565b3480156104bd57600080fd5b506104d16104cc366004612f13565b610ba0565b6040516102409190613000565b3480156104ea57600080fd5b506005546001600160a01b03166102ad565b34801561050857600080fd5b50610280610cae565b34801561051d57600080fd5b5061023461052c366004612fb4565b601c6020526000908152604090205460ff1681565b34801561054d57600080fd5b5061026961055c366004612fcf565b610cbd565b34801561056d57600080fd5b5061026961057c3660046130e4565b610cc8565b61026961058f3660046131b7565b610cde565b3480156105a057600080fd5b506102696105af3660046131fd565b610dec565b3480156105c057600080fd5b506102806105cf366004612f13565b610e04565b3480156105e057600080fd5b506102806105ef366004612f13565b610ea8565b34801561060057600080fd5b506102f6606481565b34801561061557600080fd5b50610234610624366004613278565b61132e565b34801561063557600080fd5b50601754601854610454919082565b34801561065057600080fd5b5061026961065f366004612fb4565b61135c565b6102696106723660046132ab565b61139a565b6102696106853660046132ab565b6113d3565b6102696106983660046133c3565b61159e565b60006106a882611653565b92915050565b6106b6611678565b6106c082826116a5565b5050565b6060600680546106d39061344a565b80601f01602080910402602001604051908101604052809291908181526020018280546106ff9061344a565b801561074c5780601f106107215761010080835404028352916020019161074c565b820191906000526020600020905b81548152906001019060200180831161072f57829003601f168201915b5050505050905090565b600061076182611748565b506000828152600a60205260409020546001600160a01b03166106a8565b6106c0828233611781565b6001600160a01b0382166107b957604051633250574960e11b8152600060048201526024015b60405180910390fd5b60006107c683833361178e565b9050836001600160a01b0316816001600160a01b031614610814576040516364283d7b60e01b81526001600160a01b03808616600483015260248201849052821660448201526064016107b0565b50505050565b600082815260116020526040812080548291906001600160a01b03811690600160a01b90046001600160601b03168161086e5750506010546001600160a01b03811690600160a01b90046001600160601b03165b60006127106108866001600160601b0384168961349a565b61089091906134c7565b92989297509195505050505050565b60006108aa83610b44565b82106108db5760405163295f44f760e21b81526001600160a01b0384166004820152602481018390526044016107b0565b506001600160a01b03919091166000908152600c60209081526040808320938352929052205490565b61091f83838360405180602001604052806000815250610dec565b505050565b600061092f600e5490565b82106109585760405163295f44f760e21b815260006004820152602481018390526044016107b0565b600e828154811061096b5761096b6134db565b90600052602060002001549050919050565b610985611678565b6000816001600160a01b03164760405160006040518083038185875af1925050503d80600081146109d2576040519150601f19603f3d011682016040523d82523d6000602084013e6109d7565b606091505b50509050806106c05760405162461bcd60e51b81526020600482015260146024820152732330b4b632b2103a379039b2b7321022ba3432b960611b60448201526064016107b0565b60006106a882611748565b610a32611678565b6001600160a01b03919091166000908152601c60205260409020805460ff1916911515919091179055565b6000806000610a6b42611865565b92509250925060176000015482141580610a8757506018548114155b15610aa5576040516301f8564360e31b815260040160405180910390fd5b6000610ab96005546001600160a01b031690565b6001600160a01b031603610ae05760405163af79b43760e01b815260040160405180910390fd5b600160008081601960010154610af6919061349a565b601954610b0490859061349a565b610b0e91906134f1565b905080341015610b315760405163cd1c886760e01b815260040160405180910390fd5b610b3b873361188b565b50505050505050565b60006001600160a01b038216610b70576040516322718ad960e21b8152600060048201526024016107b0565b506001600160a01b031660009081526009602052604090205490565b610b94611678565b610b9e600061193e565b565b606060016000838152602001908152602001600020805480602002602001604051908101604052809291908181526020016000905b82821015610ca35783829060005260206000209060020201604051806040016040529081600082018054610c089061344a565b80601f0160208091040260200160405190810160405280929190818152602001828054610c349061344a565b8015610c815780601f10610c5657610100808354040283529160200191610c81565b820191906000526020600020905b815481529060010190602001808311610c6457829003601f168201915b5050505050815260200160018201548152505081526020019060010190610bd5565b505050509050919050565b6060600780546106d39061344a565b6106c0338383611990565b610cd0611678565b805160195560200151601a55565b6000828152601b602052604090206001015482906001600160a01b03163314610d1a5760405163b2c3aa6b60e01b815260040160405180910390fd5b60006001600081601960010154610d31919061349a565b601954610d3f90859061349a565b610d4991906134f1565b905080341015610d6c5760405163cd1c886760e01b815260040160405180910390fd5b61011885511115610d90576040516347e8b47560e11b815260040160405180910390fd5b6000868152601b60205260409020600201610dab868261354a565b50857f12ff169b3905688bbb32ab9611e2de21543644c8a33bd49b6157844856a4ebb686604051610ddc9190612f00565b60405180910390a2505050505050565b610df784848461078a565b6108143385858585611a27565b6060610e0f82611748565b506040805160a08101825260138054825260145460208084019190915260155460ff8082161515858701526101009091041615156060840152601680548551818402810184019096528086526106a895889594936080860193919290830182828015610e9a57602002820191906000526020600020905b815481526020019060010190808311610e86575b505050505081525050611b50565b60606000610eb583610a1f565b6001600160a01b031603610edf57604051637e27328960e01b8152600481018390526024016107b0565b6000610eea83610e04565b6000848152601b6020526040812060020180549293509091610f0b9061344a565b80601f0160208091040260200160405190810160405280929190818152602001828054610f379061344a565b8015610f845780601f10610f5957610100808354040283529160200191610f84565b820191906000526020600020905b815481529060010190602001808311610f6757829003601f168201915b5050505050905060006002805490506002610f9f91906134f1565b905060608251600003610fff57816001600160401b03811115610fc457610fc4613076565b604051908082528060200260200182016040528015610ff757816020015b6060815260200190600190039081610fe25790505b5090506110b8565b8161100981613609565b925050816001600160401b0381111561102457611024613076565b60405190808252806020026020018201604052801561105757816020015b60608152602001906001900390816110425790505b509050601b60008781526020019081526020016000206002016040516020016110809190613695565b60408051601f198184030181529190528161109c6001856136e3565b815181106110ac576110ac6134db565b60200260200101819052505b6000868152601b60205260409020546110d090611d80565b6040516020016110e091906136f6565b6040516020818303038152906040528160028054905081518110611106576111066134db565b6020908102919091018101919091526000878152601b9091526040902060010154611139906001600160a01b0316611e12565b6040516020016111499190613753565b60408051601f1981840301815291905260025482906111699060016134f1565b81518110611179576111796134db565b602002602001018190525060005b6002548110156112a45760036000600283815481106111a8576111a86134db565b9060005260206000200154815260200190815260200160002060016000600284815481106111d8576111d86134db565b90600052602060002001548152602001908152602001600020600460008a8152602001908152602001600020600060028581548110611219576112196134db565b906000526020600020015481526020019081526020016000205481548110611243576112436134db565b90600052602060002090600202016000016040516020016112659291906137a4565b604051602081830303815290604052828281518110611286576112866134db565b6020026020010181905250808061129c90613609565b915050611187565b506113046112b06106c4565b6112b988611d80565b866112dd85604051806040016040528060018152602001600b60fa1b815250611e28565b6040516020016112f094939291906137fa565b604051602081830303815290604052611ed1565b604051602001611314919061391f565b604051602081830303815290604052945050505050919050565b6001600160a01b039182166000908152600b6020908152604080832093909416825291909152205460ff1690565b611364611678565b6001600160a01b03811661138e57604051631e4fbdf760e01b8152600060048201526024016107b0565b6113978161193e565b50565b336000908152601c602052604090205460ff166113ca5760405163ea8e4eb560e01b815260040160405180910390fd5b61139781611ef7565b60008060006113e142611865565b925092509250601760000154821415806113fd57506018548114155b1561141b576040516301f8564360e31b815260040160405180910390fd5b600061142f6005546001600160a01b031690565b6001600160a01b0316036114565760405163af79b43760e01b815260040160405180910390fd5b83516000808160196001015461146c919061349a565b60195461147a90859061349a565b61148491906134f1565b9050803410156114a75760405163cd1c886760e01b815260040160405180910390fd5b6064875111156114ca576040516305beb17160e11b815260040160405180910390fd5b60195487516000916114db9161349a565b905060005b885181101561156957338982815181106114fc576114fc6134db565b6020026020010151602001906001600160a01b031690816001600160a01b0316815250506000898281518110611534576115346134db565b60200260200101516040015151111561155757601a5461155490836134f1565b91505b8061156181613609565b9150506114e0565b508034101561158b5760405163cd1c886760e01b815260040160405180910390fd5b61159488611ef7565b5050505050505050565b826000816040516020016115b29190613964565b6040516020818303038152906040528051906020012090506000805b6002548110156116175782600282815481106115ec576115ec6134db565b9060005260206000200154036116055760019150611617565b8061160f81613609565b9150506115ce565b50806116385782604051632827ddc960e11b81526004016107b09190612f00565b611640611678565b61164b8686866120ac565b505050505050565b60006001600160e01b0319821663152a902d60e11b14806106a857506106a8826121ab565b6005546001600160a01b03163314610b9e5760405163118cdaa760e01b81523360048201526024016107b0565b6127106001600160601b0382168110156116e457604051636f483d0960e01b81526001600160601b0383166004820152602481018290526044016107b0565b6001600160a01b03831661170e57604051635b6cc80560e11b8152600060048201526024016107b0565b50604080518082019091526001600160a01b039092168083526001600160601b039091166020909201829052600160a01b90910217601055565b6000818152600860205260408120546001600160a01b0316806106a857604051637e27328960e01b8152600481018490526024016107b0565b61091f83838360016121d0565b60008061179c8585856122d6565b90506001600160a01b0381166117f9576117f484600e80546000838152600f60205260408120829055600182018355919091527fbb7b4a454dc3493923482f07822329ed19e8244eff582cc204f8554c3620c3fd0155565b61181c565b846001600160a01b0316816001600160a01b03161461181c5761181c81856123cf565b6001600160a01b0385166118385761183384612450565b61185b565b846001600160a01b0316816001600160a01b03161461185b5761185b85856124ff565b90505b9392505050565b6000808061187e61187962015180866134c7565b61254f565b9196909550909350915050565b6000611896600e5490565b6118a19060016134f1565b90506118ad83826126c3565b6118b642612728565b6000828152601b6020526040902090815560010180546001600160a01b0319166001600160a01b0384161790556118ec81612743565b816001600160a01b0316836001600160a01b03167fcffd36860d38f331253ade8dba4c10f8d9f41de2c44fc68333db0542213e44f38360405161193191815260200190565b60405180910390a3505050565b600580546001600160a01b038381166001600160a01b0319831681179093556040519116919082907f8be0079c531659141344cd1fd0a4f28419497f9722a3daafe3b4186f6b6457e090600090a35050565b6001600160a01b0382166119c257604051630b61174360e31b81526001600160a01b03831660048201526024016107b0565b6001600160a01b038381166000818152600b6020908152604080832094871680845294825291829020805460ff191686151590811790915591519182527f17307eab39ab6107e8899845ad3d59bd9653f200f220920489ca2b5937696c319101611931565b6001600160a01b0383163b15611b4957604051630a85bd0160e11b81526001600160a01b0384169063150b7a0290611a69908890889087908790600401613980565b6020604051808303816000875af1925050508015611aa4575060408051601f3d908101601f19168201909252611aa1918101906139bd565b60015b611b0d573d808015611ad2576040519150601f19603f3d011682016040523d82523d6000602084013e611ad7565b606091505b508051600003611b0557604051633250574960e11b81526001600160a01b03851660048201526024016107b0565b805181602001fd5b6001600160e01b03198116630a85bd0160e11b1461164b57604051633250574960e11b81526001600160a01b03851660048201526024016107b0565b5050505050565b6002546060906000906001600160401b03811115611b7057611b70613076565b604051908082528060200260200182016040528015611b99578160200160208202803683370190505b50905060005b600254811015611ccd5760006001600060028481548110611bc257611bc26134db565b906000526020600020015481526020019081526020016000209050600060046000888152602001908152602001600020600060028581548110611c0757611c076134db565b9060005260206000200154815260200190815260200160002054905081805490508110611c765760405162461bcd60e51b815260206004820152601960248201527f547261697420696e646578206f7574206f6620626f756e64730000000000000060448201526064016107b0565b818181548110611c8857611c886134db565b906000526020600020906002020160010154848481518110611cac57611cac6134db565b60200260200101818152505050508080611cc590613609565b915050611b9f565b506040805160a0810182526020808601518252855190820152848201511515818301526060808601511515908201526080810183905260005491516360e788d160e01b815290916001600160a01b0316906360e788d190611d329084906004016139da565b600060405180830381865afa158015611d4f573d6000803e3d6000fd5b505050506040513d6000823e601f3d908101601f19168201604052611d779190810190613a58565b95945050505050565b60606000611d8d8361285b565b60010190506000816001600160401b03811115611dac57611dac613076565b6040519080825280601f01601f191660200182016040528015611dd6576020820181803683370190505b5090508181016020015b600019016f181899199a1a9b1b9c1cb0b131b232b360811b600a86061a8153600a8504945084611de057509392505050565b60606106a86001600160a01b0383166014612933565b60608251600003611e4857506040805160208101909152600081526106a8565b600083600081518110611e5d57611e5d6134db565b602002602001015190506000600190505b8451811015611ec9578184868381518110611e8b57611e8b6134db565b6020026020010151604051602001611ea593929190613ac5565b60405160208183030381529060405291508080611ec190613609565b915050611e6e565b509392505050565b60606106a882604051806060016040528060408152602001613c59604091396001612ab2565b60005b815181101561207157610118828281518110611f1857611f186134db565b602002602001015160400151511115611f44576040516347e8b47560e11b815260040160405180910390fd5b6000611f4f600e5490565b611f5a9060016134f1565b9050611fa0838381518110611f7157611f716134db565b602002602001015160000151848481518110611f8f57611f8f6134db565b60200260200101516020015161188b565b6000838381518110611fb457611fb46134db565b60200260200101516040015151111561205e57828281518110611fd957611fd96134db565b602002602001015160400151601b60008381526020019081526020016000206002019081612007919061354a565b50807f12ff169b3905688bbb32ab9611e2de21543644c8a33bd49b6157844856a4ebb684848151811061203c5761203c6134db565b6020026020010151604001516040516120559190612f00565b60405180910390a25b508061206981613609565b915050611efa565b50805160405190815233907f6174e73d7eb2fee6c482f87f81961b83cfa577f50c963bd1516f282497260fcd9060200160405180910390a250565b600080546040516320cfcfcd60e21b81526001600160a01b039091169063833f3f349034906120e19086903390600401613b08565b60206040518083038185885af11580156120ff573d6000803e3d6000fd5b50505050506040513d601f19601f820116820180604052508101906121249190613b32565b9050600160008560405160200161213b9190613964565b60408051601f1981840301815291815281516020928301208352828201939093529082016000908120835180850190945286845283830185905280546001810182559082529190208251600290920201908190612198908261354a565b5060208201518160010155505050505050565b60006001600160e01b0319821663780e9d6360e01b14806106a857506106a882612c31565b80806121e457506001600160a01b03821615155b156122a65760006121f484611748565b90506001600160a01b038316158015906122205750826001600160a01b0316816001600160a01b031614155b80156122335750612231818461132e565b155b1561225c5760405163a9fbf51f60e01b81526001600160a01b03841660048201526024016107b0565b81156122a45783856001600160a01b0316826001600160a01b03167f8c5be1e5ebec7d5bd14f71427d1e84f3dd0314c0f7b2291e5b200ac8c7c3b92560405160405180910390a45b505b50506000908152600a6020526040902080546001600160a01b0319166001600160a01b0392909216919091179055565b6000828152600860205260408120546001600160a01b039081169083161561230357612303818486612c81565b6001600160a01b03811615612341576123206000856000806121d0565b6001600160a01b038116600090815260096020526040902080546000190190555b6001600160a01b03851615612370576001600160a01b0385166000908152600960205260409020805460010190555b60008481526008602052604080822080546001600160a01b0319166001600160a01b0389811691821790925591518793918516917fddf252ad1be2c89b69c2b068fc378daa952ba7f163c4a11628f55a4df523b3ef91a4949350505050565b60006123da83610b44565b6000838152600d60209081526040808320546001600160a01b0388168452600c9092529091209192509081831461243157600083815260208281526040808320548584528184208190558352600d90915290208290555b6000938452600d60209081526040808620869055938552525081205550565b600e54600090612462906001906136e3565b6000838152600f6020526040812054600e805493945090928490811061248a5761248a6134db565b9060005260206000200154905080600e83815481106124ab576124ab6134db565b6000918252602080832090910192909255828152600f9091526040808220849055858252812055600e8054806124e3576124e3613b4b565b6001900381819060005260206000200160009055905550505050565b6000600161250c84610b44565b61251691906136e3565b6001600160a01b039093166000908152600c602090815260408083208684528252808320859055938252600d9052919091209190915550565b60008080838162253d8c6125668362010bd9613b61565b6125709190613b61565b9050600062023ab1612583836004613b89565b61258d9190613bb9565b9050600461259e8262023ab1613b89565b6125a9906003613b61565b6125b39190613bb9565b6125bd9083613be7565b9150600062164b096125d0846001613b61565b6125dc90610fa0613b89565b6125e69190613bb9565b905060046125f6826105b5613b89565b6126009190613bb9565b61260a9084613be7565b61261590601f613b61565b9250600061098f612627856050613b89565b6126319190613bb9565b9050600060506126438361098f613b89565b61264d9190613bb9565b6126579086613be7565b9050612664600b83613bb9565b945061267185600c613b89565b61267c836002613b61565b6126869190613be7565b91508483612695603187613be7565b6126a0906064613b89565b6126aa9190613b61565b6126b49190613b61565b9a919950975095505050505050565b6001600160a01b0382166126ed57604051633250574960e11b8152600060048201526024016107b0565b60006126fb8383600061178e565b90506001600160a01b0381161561091f576040516339e3563760e11b8152600060048201526024016107b0565b600061273a61187962015180846134c7565b50909392505050565b61274c81611748565b506000818152601b602052604090206003015460ff161561278057604051639d02bf7b60e01b815260040160405180910390fd5b60005b60025460ff821610156127f15761279981612ce5565b60008381526004602052604081206002805491929160ff86169081106127c1576127c16134db565b906000526020600020015481526020019081526020016000208190555080806127e990613c0e565b915050612783565b5060125460408051426020808301919091526bffffffffffffffffffffffff193360601b168284015260548083019490945282518083039094018452607490910190915281519101206012556000908152601b60205260409020600301805460ff19166001179055565b60008072184f03e93ff9f4daa797ed6e38ed64bf6a1f0160401b831061289a5772184f03e93ff9f4daa797ed6e38ed64bf6a1f0160401b830492506040015b6d04ee2d6d415b85acef810000000083106128c6576d04ee2d6d415b85acef8100000000830492506020015b662386f26fc1000083106128e457662386f26fc10000830492506010015b6305f5e10083106128fc576305f5e100830492506008015b612710831061291057612710830492506004015b60648310612922576064830492506002015b600a83106106a85760010192915050565b606082600061294384600261349a565b61294e9060026134f1565b6001600160401b0381111561296557612965613076565b6040519080825280601f01601f19166020018201604052801561298f576020820181803683370190505b509050600360fc1b816000815181106129aa576129aa6134db565b60200101906001600160f81b031916908160001a905350600f60fb1b816001815181106129d9576129d96134db565b60200101906001600160f81b031916908160001a90535060006129fd85600261349a565b612a089060016134f1565b90505b6001811115612a80576f181899199a1a9b1b9c1cb0b131b232b360811b83600f1660108110612a3c57612a3c6134db565b1a60f81b828281518110612a5257612a526134db565b60200101906001600160f81b031916908160001a90535060049290921c91612a7981613c2d565b9050612a0b565b508115612aaa5760405163e22e27eb60e01b815260048101869052602481018590526044016107b0565b949350505050565b60608351600003612ad2575060408051602081019091526000815261185e565b600082612b0357600385516004612ae9919061349a565b612af49060026134f1565b612afe91906134c7565b612b28565b600385516002612b1391906134f1565b612b1d91906134c7565b612b2890600461349a565b90506000816001600160401b03811115612b4457612b44613076565b6040519080825280601f01601f191660200182016040528015612b6e576020820181803683370190505b50905060018501602082018788518901602081018051600082525b82841015612be4576003840193508351603f8160121c168701518653600186019550603f81600c1c168701518653600186019550603f8160061c168701518653600186019550603f8116870151865350600185019450612b89565b905250508515612c2557600388510660018114612c085760028114612c1b57612c23565b603d6001830353603d6002830353612c23565b603d60018303535b505b50909695505050505050565b60006001600160e01b031982166380ac58cd60e01b1480612c6257506001600160e01b03198216635b5e139f60e01b145b806106a857506301ffc9a760e01b6001600160e01b03198316146106a8565b612c8c838383612dbb565b61091f576001600160a01b038316612cba57604051637e27328960e01b8152600481018290526024016107b0565b60405163177e802f60e01b81526001600160a01b0383166004820152602481018290526044016107b0565b60025460009060ff831610612d315760405162461bcd60e51b81526020600482015260126024820152715472616974206f7574206f662072616e676560701b60448201526064016107b0565b60006001600060028560ff1681548110612d4d57612d4d6134db565b906000526020600020015481526020019081526020016000208054905090508060125484604051602001612d9892919091825260f81b6001600160f81b031916602082015260210190565b6040516020818303038152906040528051906020012060001c61185e9190613c44565b60006001600160a01b0383161580159061185b5750826001600160a01b0316846001600160a01b03161480612df55750612df5848461132e565b8061185b5750506000908152600a60205260409020546001600160a01b03908116911614919050565b6001600160e01b03198116811461139757600080fd5b600060208284031215612e4657600080fd5b813561185e81612e1e565b80356001600160a01b0381168114612e6857600080fd5b919050565b60008060408385031215612e8057600080fd5b612e8983612e51565b915060208301356001600160601b0381168114612ea557600080fd5b809150509250929050565b60005b83811015612ecb578181015183820152602001612eb3565b50506000910152565b60008151808452612eec816020860160208601612eb0565b601f01601f19169290920160200192915050565b60208152600061185e6020830184612ed4565b600060208284031215612f2557600080fd5b5035919050565b60008060408385031215612f3f57600080fd5b612f4883612e51565b946020939093013593505050565b600080600060608486031215612f6b57600080fd5b612f7484612e51565b9250612f8260208501612e51565b9150604084013590509250925092565b60008060408385031215612fa557600080fd5b50508035926020909101359150565b600060208284031215612fc657600080fd5b61185e82612e51565b60008060408385031215612fe257600080fd5b612feb83612e51565b915060208301358015158114612ea557600080fd5b60006020808301818452808551808352604092508286019150828160051b87010184880160005b8381101561306857888303603f190185528151805187855261304b88860182612ed4565b918901519489019490945294870194925090860190600101613027565b509098975050505050505050565b634e487b7160e01b600052604160045260246000fd5b604051606081016001600160401b03811182821017156130ae576130ae613076565b60405290565b604051601f8201601f191681016001600160401b03811182821017156130dc576130dc613076565b604052919050565b6000604082840312156130f657600080fd5b604051604081018181106001600160401b038211171561311857613118613076565b604052823581526020928301359281019290925250919050565b60006001600160401b0382111561314b5761314b613076565b50601f01601f191660200190565b600061316c61316784613132565b6130b4565b905082815283838301111561318057600080fd5b828260208301376000602084830101529392505050565b600082601f8301126131a857600080fd5b61185e83833560208501613159565b600080604083850312156131ca57600080fd5b8235915060208301356001600160401b038111156131e757600080fd5b6131f385828601613197565b9150509250929050565b6000806000806080858703121561321357600080fd5b61321c85612e51565b935061322a60208601612e51565b92506040850135915060608501356001600160401b0381111561324c57600080fd5b8501601f8101871361325d57600080fd5b61326c87823560208401613159565b91505092959194509250565b6000806040838503121561328b57600080fd5b61329483612e51565b91506132a260208401612e51565b90509250929050565b600060208083850312156132be57600080fd5b82356001600160401b03808211156132d557600080fd5b818501915085601f8301126132e957600080fd5b8135818111156132fb576132fb613076565b8060051b61330a8582016130b4565b918252838101850191858101908984111561332457600080fd5b86860192505b838310156133b6578235858111156133425760008081fd5b86016060818c03601f190181131561335a5760008081fd5b61336261308c565b61336d8a8401612e51565b8152604061337c818501612e51565b828c01529183013591888311156133935760008081fd5b6133a18e8c85870101613197565b9082015284525050918601919086019061332a565b9998505050505050505050565b6000806000606084860312156133d857600080fd5b83356001600160401b03808211156133ef57600080fd5b6133fb87838801613197565b9450602086013591508082111561341157600080fd5b61341d87838801613197565b9350604086013591508082111561343357600080fd5b5061344086828701613197565b9150509250925092565b600181811c9082168061345e57607f821691505b60208210810361347e57634e487b7160e01b600052602260045260246000fd5b50919050565b634e487b7160e01b600052601160045260246000fd5b80820281158282048414176106a8576106a8613484565b634e487b7160e01b600052601260045260246000fd5b6000826134d6576134d66134b1565b500490565b634e487b7160e01b600052603260045260246000fd5b808201808211156106a8576106a8613484565b601f82111561091f57600081815260208120601f850160051c8101602086101561352b5750805b601f850160051c820191505b8181101561164b57828155600101613537565b81516001600160401b0381111561356357613563613076565b61357781613571845461344a565b84613504565b602080601f8311600181146135ac57600084156135945750858301515b600019600386901b1c1916600185901b17855561164b565b600085815260208120601f198616915b828110156135db578886015182559484019460019091019084016135bc565b50858210156135f95787850151600019600388901b60f8161c191681555b5050505050600190811b01905550565b60006001820161361b5761361b613484565b5060010190565b6000815461362f8161344a565b60018281168015613647576001811461365c5761368b565b60ff198416875282151583028701945061368b565b8560005260208060002060005b858110156136825781548a820152908401908201613669565b50505082870194505b5050505092915050565b7f7b2274726169745f74797065223a224d657373616765222c2276616c7565223a8152601160f91b602082015260006136d16021830184613622565b61227d60f01b81526002019392505050565b818103818111156106a8576106a8613484565b7f7b2274726169745f74797065223a224d696e742059656172222c2276616c7565815262111d1160e91b60208201526000825161373a816023850160208701612eb0565b61227d60f01b6023939091019283015250602501919050565b7f7b2274726169745f74797065223a2253656e646572222c2276616c7565223a2281526000825161378b816020850160208701612eb0565b61227d60f01b6020939091019283015250602201919050565b6e3d913a3930b4ba2fba3cb832911d1160891b815260006137c8600f830185613622565b6a1116113b30b63ab2911d1160a91b81526137e6600b820185613622565b61227d60f01b815260020195945050505050565b683d913730b6b2911d1160b91b8152845160009061381f816009850160208a01612eb0565b61202360f01b600991840191820152855161384181600b840160208a01612eb0565b7f222c226465736372697074696f6e223a22416e20696d6d757461626c65205661600b92909101918201527f6c656e74696e652773204461792043617264204e46542e222c22696d61676522602b8201527f3a22646174613a696d6167652f7376672b786d6c3b6261736536342c00000000604b82015284516138cb816067840160208901612eb0565b6f222c2261747472696275746573223a5b60801b6067929091019182015283516138fc816077840160208801612eb0565b613913607782840101615d7d60f01b815260020190565b98975050505050505050565b7f646174613a6170706c69636174696f6e2f6a736f6e3b6261736536342c00000081526000825161395781601d850160208701612eb0565b91909101601d0192915050565b60008251613976818460208701612eb0565b9190910192915050565b6001600160a01b03858116825284166020820152604081018390526080606082018190526000906139b390830184612ed4565b9695505050505050565b6000602082840312156139cf57600080fd5b815161185e81612e1e565b6000602080835260c08301845182850152818501516040850152604085015115156060850152606085015115156080850152608085015160a08086015281815180845260e0870191508483019350600092505b80831015613a4d5783518252928401926001929092019190840190613a2d565b509695505050505050565b600060208284031215613a6a57600080fd5b81516001600160401b03811115613a8057600080fd5b8201601f81018413613a9157600080fd5b8051613a9f61316782613132565b818152856020838501011115613ab457600080fd5b611d77826020830160208601612eb0565b60008451613ad7818460208901612eb0565b845190830190613aeb818360208901612eb0565b8451910190613afe818360208801612eb0565b0195945050505050565b604081526000613b1b6040830185612ed4565b905060018060a01b03831660208301529392505050565b600060208284031215613b4457600080fd5b5051919050565b634e487b7160e01b600052603160045260246000fd5b8082018281126000831280158216821582161715613b8157613b81613484565b505092915050565b80820260008212600160ff1b84141615613ba557613ba5613484565b81810583148215176106a8576106a8613484565b600082613bc857613bc86134b1565b600160ff1b821460001984141615613be257613be2613484565b500590565b8181036000831280158383131683831282161715613c0757613c07613484565b5092915050565b600060ff821660ff8103613c2457613c24613484565b60010192915050565b600081613c3c57613c3c613484565b506000190190565b600082613c5357613c536134b1565b50069056fe4142434445464748494a4b4c4d4e4f505152535455565758595a6162636465666768696a6b6c6d6e6f707172737475767778797a303132333435363738392b2fa2646970667358221220a6b85791a4d4e85b2ac97f68e97f09ea5d77252b8d55f4d0b91525b5e7657f6564736f6c63430008140033",
  "linkReferences": {},
  "deployedLinkReferences": {}
}